{
  "_format": "hh-sol-artifact-1",
  "contractName": "Citizens",
  "sourceName": "contracts/Citizens.sol",
  "abi": [
    {
      "inputs": [
        {
          "internalType": "address",
          "name": "_relayer",
          "type": "address"
        }
      ],
      "stateMutability": "nonpayable",
      "type": "constructor"
    },
    {
      "inputs": [],
      "name": "authority",
      "outputs": [
        {
          "internalType": "address",
          "name": "",
          "type": "address"
        }
      ],
      "stateMutability": "view",
      "type": "function"
    },
    {
      "inputs": [
        {
          "internalType": "uint256",
          "name": "",
          "type": "uint256"
        }
      ],
      "name": "citizenKeys",
      "outputs": [
        {
          "internalType": "string",
          "name": "",
          "type": "string"
        }
      ],
      "stateMutability": "view",
      "type": "function"
    },
    {
      "inputs": [],
      "name": "getCitizens",
      "outputs": [
        {
          "components": [
            {
              "internalType": "string",
              "name": "uuid",
              "type": "string"
            },
            {
              "internalType": "string",
              "name": "passHash",
              "type": "string"
            },
            {
              "internalType": "string",
              "name": "recoveryEmailHash",
              "type": "string"
            }
          ],
          "internalType": "struct Citizens.Citizen[]",
          "name": "",
          "type": "tuple[]"
        }
      ],
      "stateMutability": "view",
      "type": "function"
    },
    {
      "inputs": [
        {
          "internalType": "string",
          "name": "_uuid",
          "type": "string"
        },
        {
          "internalType": "string",
          "name": "_passhash",
          "type": "string"
        }
      ],
      "name": "recovery",
      "outputs": [],
      "stateMutability": "nonpayable",
      "type": "function"
    },
    {
      "inputs": [
        {
          "internalType": "string",
          "name": "_uuid",
          "type": "string"
        },
        {
          "internalType": "string",
          "name": "_passhash",
          "type": "string"
        },
        {
          "internalType": "string",
          "name": "_recovery",
          "type": "string"
        }
      ],
      "name": "registation",
      "outputs": [],
      "stateMutability": "nonpayable",
      "type": "function"
    },
    {
      "inputs": [],
      "name": "relayer",
      "outputs": [
        {
          "internalType": "address",
          "name": "",
          "type": "address"
        }
      ],
      "stateMutability": "view",
      "type": "function"
    },
    {
      "inputs": [
        {
          "internalType": "address",
          "name": "_relayer",
          "type": "address"
        }
      ],
      "name": "updateRelayer",
      "outputs": [],
      "stateMutability": "nonpayable",
      "type": "function"
    }
  ],
  "bytecode": "0x60806040523480156200001157600080fd5b506040516200180c3803806200180c833981810160405281019062000037919062000129565b336000806101000a81548173ffffffffffffffffffffffffffffffffffffffff021916908373ffffffffffffffffffffffffffffffffffffffff16021790555080600160006101000a81548173ffffffffffffffffffffffffffffffffffffffff021916908373ffffffffffffffffffffffffffffffffffffffff160217905550506200015b565b600080fd5b600073ffffffffffffffffffffffffffffffffffffffff82169050919050565b6000620000f182620000c4565b9050919050565b6200010381620000e4565b81146200010f57600080fd5b50565b6000815190506200012381620000f8565b92915050565b600060208284031215620001425762000141620000bf565b5b6000620001528482850162000112565b91505092915050565b6116a1806200016b6000396000f3fe608060405234801561001057600080fd5b506004361061007d5760003560e01c80638406c0791161005b5780638406c079146100ea5780638f83ab1314610108578063bf7e214f14610124578063eee8c7db146101425761007d565b806301aa044a146100825780631d4b64f41461009e5780634de069a4146100ce575b600080fd5b61009c60048036038101906100979190610c5d565b610160565b005b6100b860048036038101906100b39190610d0b565b610434565b6040516100c59190610db7565b60405180910390f35b6100e860048036038101906100e39190610dd9565b6104e0565b005b6100f2610698565b6040516100ff9190610ec1565b60405180910390f35b610122600480360381019061011d9190610f08565b6106be565b005b61012c610790565b6040516101399190610ec1565b60405180910390f35b61014a6107b4565b604051610157919061109f565b60405180910390f35b600160009054906101000a900473ffffffffffffffffffffffffffffffffffffffff1673ffffffffffffffffffffffffffffffffffffffff163373ffffffffffffffffffffffffffffffffffffffff16146101f0576040517f08c379a00000000000000000000000000000000000000000000000000000000081526004016101e79061110d565b60405180910390fd5b60006002836040516102029190611169565b9081526020016040518091039020600001805461021e906111af565b905003610260576040517f08c379a00000000000000000000000000000000000000000000000000000000081526004016102579061122c565b60405180910390fd5b604051806060016040528060028460405161027b9190611169565b90815260200160405180910390206000018054610297906111af565b80601f01602080910402602001604051908101604052809291908181526020018280546102c3906111af565b80156103105780601f106102e557610100808354040283529160200191610310565b820191906000526020600020905b8154815290600101906020018083116102f357829003601f168201915b505050505081526020018281526020016002846040516103309190611169565b9081526020016040518091039020600201805461034c906111af565b80601f0160208091040260200160405190810160405280929190818152602001828054610378906111af565b80156103c55780601f1061039a576101008083540402835291602001916103c5565b820191906000526020600020905b8154815290600101906020018083116103a857829003601f168201915b50505050508152506002836040516103dd9190611169565b9081526020016040518091039020600082015181600001908161040091906113f8565b50602082015181600101908161041691906113f8565b50604082015181600201908161042c91906113f8565b509050505050565b6003818154811061044457600080fd5b90600052602060002001600091509050805461045f906111af565b80601f016020809104026020016040519081016040528092919081815260200182805461048b906111af565b80156104d85780601f106104ad576101008083540402835291602001916104d8565b820191906000526020600020905b8154815290600101906020018083116104bb57829003601f168201915b505050505081565b600160009054906101000a900473ffffffffffffffffffffffffffffffffffffffff1673ffffffffffffffffffffffffffffffffffffffff163373ffffffffffffffffffffffffffffffffffffffff1614610570576040517f08c379a00000000000000000000000000000000000000000000000000000000081526004016105679061110d565b60405180910390fd5b60006002846040516105829190611169565b9081526020016040518091039020600001805461059e906111af565b9050146105e0576040517f08c379a00000000000000000000000000000000000000000000000000000000081526004016105d790611516565b60405180910390fd5b60405180606001604052808481526020018381526020018281525060028460405161060b9190611169565b9081526020016040518091039020600082015181600001908161062e91906113f8565b50602082015181600101908161064491906113f8565b50604082015181600201908161065a91906113f8565b5090505060038390806001815401808255809150506001900390600052602060002001600090919091909150908161069291906113f8565b50505050565b600160009054906101000a900473ffffffffffffffffffffffffffffffffffffffff1681565b60008054906101000a900473ffffffffffffffffffffffffffffffffffffffff1673ffffffffffffffffffffffffffffffffffffffff163373ffffffffffffffffffffffffffffffffffffffff161461074c576040517f08c379a000000000000000000000000000000000000000000000000000000000815260040161074390611582565b60405180910390fd5b80600160006101000a81548173ffffffffffffffffffffffffffffffffffffffff021916908373ffffffffffffffffffffffffffffffffffffffff16021790555050565b60008054906101000a900473ffffffffffffffffffffffffffffffffffffffff1681565b6060600160009054906101000a900473ffffffffffffffffffffffffffffffffffffffff1673ffffffffffffffffffffffffffffffffffffffff163373ffffffffffffffffffffffffffffffffffffffff1614610846576040517f08c379a000000000000000000000000000000000000000000000000000000000815260040161083d9061110d565b60405180910390fd5b600060038054905067ffffffffffffffff81111561086757610866610b32565b5b6040519080825280602002602001820160405280156108a057816020015b61088d610ae2565b8152602001906001900390816108855790505b50905060005b600380549050811015610ada576002600382815481106108c9576108c86115a2565b5b906000526020600020016040516108e09190611654565b9081526020016040518091039020604051806060016040529081600082018054610909906111af565b80601f0160208091040260200160405190810160405280929190818152602001828054610935906111af565b80156109825780601f1061095757610100808354040283529160200191610982565b820191906000526020600020905b81548152906001019060200180831161096557829003601f168201915b5050505050815260200160018201805461099b906111af565b80601f01602080910402602001604051908101604052809291908181526020018280546109c7906111af565b8015610a145780601f106109e957610100808354040283529160200191610a14565b820191906000526020600020905b8154815290600101906020018083116109f757829003601f168201915b50505050508152602001600282018054610a2d906111af565b80601f0160208091040260200160405190810160405280929190818152602001828054610a59906111af565b8015610aa65780601f10610a7b57610100808354040283529160200191610aa6565b820191906000526020600020905b815481529060010190602001808311610a8957829003601f168201915b505050505081525050828281518110610ac257610ac16115a2565b5b602002602001018190525080806001019150506108a6565b508091505090565b60405180606001604052806060815260200160608152602001606081525090565b6000604051905090565b600080fd5b600080fd5b600080fd5b600080fd5b6000601f19601f8301169050919050565b7f4e487b7100000000000000000000000000000000000000000000000000000000600052604160045260246000fd5b610b6a82610b21565b810181811067ffffffffffffffff82111715610b8957610b88610b32565b5b80604052505050565b6000610b9c610b03565b9050610ba88282610b61565b919050565b600067ffffffffffffffff821115610bc857610bc7610b32565b5b610bd182610b21565b9050602081019050919050565b82818337600083830152505050565b6000610c00610bfb84610bad565b610b92565b905082815260208101848484011115610c1c57610c1b610b1c565b5b610c27848285610bde565b509392505050565b600082601f830112610c4457610c43610b17565b5b8135610c54848260208601610bed565b91505092915050565b60008060408385031215610c7457610c73610b0d565b5b600083013567ffffffffffffffff811115610c9257610c91610b12565b5b610c9e85828601610c2f565b925050602083013567ffffffffffffffff811115610cbf57610cbe610b12565b5b610ccb85828601610c2f565b9150509250929050565b6000819050919050565b610ce881610cd5565b8114610cf357600080fd5b50565b600081359050610d0581610cdf565b92915050565b600060208284031215610d2157610d20610b0d565b5b6000610d2f84828501610cf6565b91505092915050565b600081519050919050565b600082825260208201905092915050565b60005b83811015610d72578082015181840152602081019050610d57565b60008484015250505050565b6000610d8982610d38565b610d938185610d43565b9350610da3818560208601610d54565b610dac81610b21565b840191505092915050565b60006020820190508181036000830152610dd18184610d7e565b905092915050565b600080600060608486031215610df257610df1610b0d565b5b600084013567ffffffffffffffff811115610e1057610e0f610b12565b5b610e1c86828701610c2f565b935050602084013567ffffffffffffffff811115610e3d57610e3c610b12565b5b610e4986828701610c2f565b925050604084013567ffffffffffffffff811115610e6a57610e69610b12565b5b610e7686828701610c2f565b9150509250925092565b600073ffffffffffffffffffffffffffffffffffffffff82169050919050565b6000610eab82610e80565b9050919050565b610ebb81610ea0565b82525050565b6000602082019050610ed66000830184610eb2565b92915050565b610ee581610ea0565b8114610ef057600080fd5b50565b600081359050610f0281610edc565b92915050565b600060208284031215610f1e57610f1d610b0d565b5b6000610f2c84828501610ef3565b91505092915050565b600081519050919050565b600082825260208201905092915050565b6000819050602082019050919050565b600082825260208201905092915050565b6000610f7d82610d38565b610f878185610f61565b9350610f97818560208601610d54565b610fa081610b21565b840191505092915050565b60006060830160008301518482036000860152610fc88282610f72565b91505060208301518482036020860152610fe28282610f72565b91505060408301518482036040860152610ffc8282610f72565b9150508091505092915050565b60006110158383610fab565b905092915050565b6000602082019050919050565b600061103582610f35565b61103f8185610f40565b93508360208202850161105185610f51565b8060005b8581101561108d578484038952815161106e8582611009565b94506110798361101d565b925060208a01995050600181019050611055565b50829750879550505050505092915050565b600060208201905081810360008301526110b9818461102a565b905092915050565b7f596f7520617265206e6f74207468652072656c61796572000000000000000000600082015250565b60006110f7601783610d43565b9150611102826110c1565b602082019050919050565b60006020820190508181036000830152611126816110ea565b9050919050565b600081905092915050565b600061114382610d38565b61114d818561112d565b935061115d818560208601610d54565b80840191505092915050565b60006111758284611138565b915081905092915050565b7f4e487b7100000000000000000000000000000000000000000000000000000000600052602260045260246000fd5b600060028204905060018216806111c757607f821691505b6020821081036111da576111d9611180565b5b50919050565b7f55736572206e6f7420666f756e64000000000000000000000000000000000000600082015250565b6000611216600e83610d43565b9150611221826111e0565b602082019050919050565b6000602082019050818103600083015261124581611209565b9050919050565b60008190508160005260206000209050919050565b60006020601f8301049050919050565b600082821b905092915050565b6000600883026112ae7fffffffffffffffffffffffffffffffffffffffffffffffffffffffffffffffff82611271565b6112b88683611271565b95508019841693508086168417925050509392505050565b6000819050919050565b60006112f56112f06112eb84610cd5565b6112d0565b610cd5565b9050919050565b6000819050919050565b61130f836112da565b61132361131b826112fc565b84845461127e565b825550505050565b600090565b61133861132b565b611343818484611306565b505050565b5b818110156113675761135c600082611330565b600181019050611349565b5050565b601f8211156113ac5761137d8161124c565b61138684611261565b81016020851015611395578190505b6113a96113a185611261565b830182611348565b50505b505050565b600082821c905092915050565b60006113cf600019846008026113b1565b1980831691505092915050565b60006113e883836113be565b9150826002028217905092915050565b61140182610d38565b67ffffffffffffffff81111561141a57611419610b32565b5b61142482546111af565b61142f82828561136b565b600060209050601f8311600181146114625760008415611450578287015190505b61145a85826113dc565b8655506114c2565b601f1984166114708661124c565b60005b8281101561149857848901518255600182019150602085019450602081019050611473565b868310156114b557848901516114b1601f8916826113be565b8355505b6001600288020188555050505b505050505050565b7f5573657220616c72656164792065786973747300000000000000000000000000600082015250565b6000611500601383610d43565b915061150b826114ca565b602082019050919050565b6000602082019050818103600083015261152f816114f3565b9050919050565b7f596f7520617265206e6f742074686520617574686f7269747900000000000000600082015250565b600061156c601983610d43565b915061157782611536565b602082019050919050565b6000602082019050818103600083015261159b8161155f565b9050919050565b7f4e487b7100000000000000000000000000000000000000000000000000000000600052603260045260246000fd5b600081546115de816111af565b6115e8818661112d565b9450600182166000811461160357600181146116185761164b565b60ff198316865281151582028601935061164b565b6116218561124c565b60005b8381101561164357815481890152600182019150602081019050611624565b838801955050505b50505092915050565b600061166082846115d1565b91508190509291505056fea2646970667358221220a2c7ee92c4fa5818cdd4dd554a7af720a3110eec7ee0cdc7ef147b66bbd1288164736f6c63430008180033",
  "linkReferences": {},
  "deployedLinkReferences": {}
}