{
  "_format": "hh-sol-artifact-1",
  "contractName": "CitizenWalletFactory",
  "sourceName": "contracts/CitizenWalletFactory.sol",
  "abi": [
    {
      "inputs": [
        {
          "internalType": "address",
          "name": "_relayer",
          "type": "address"
        },
        {
          "internalType": "address",
          "name": "_verifierContract",
          "type": "address"
        }
      ],
      "stateMutability": "nonpayable",
      "type": "constructor"
    },
    {
      "anonymous": false,
      "inputs": [
        {
          "indexed": true,
          "internalType": "uint256",
          "name": "NID",
          "type": "uint256"
        },
        {
          "indexed": true,
          "internalType": "address",
          "name": "citizenWalletAddress",
          "type": "address"
        }
      ],
      "name": "NewCitizenWalletCreated",
      "type": "event"
    },
    {
      "inputs": [
        {
          "internalType": "uint256",
          "name": "",
          "type": "uint256"
        }
      ],
      "name": "CitizenInfo",
      "outputs": [
        {
          "internalType": "bytes32",
          "name": "",
          "type": "bytes32"
        }
      ],
      "stateMutability": "view",
      "type": "function"
    },
    {
      "inputs": [
        {
          "internalType": "uint256",
          "name": "",
          "type": "uint256"
        }
      ],
      "name": "Citizens",
      "outputs": [
        {
          "internalType": "address",
          "name": "",
          "type": "address"
        }
      ],
      "stateMutability": "view",
      "type": "function"
    },
    {
      "inputs": [],
      "name": "authority",
      "outputs": [
        {
          "internalType": "address",
          "name": "",
          "type": "address"
        }
      ],
      "stateMutability": "view",
      "type": "function"
    },
    {
      "inputs": [
        {
          "internalType": "uint256",
          "name": "_NID",
          "type": "uint256"
        }
      ],
      "name": "blockCitizen",
      "outputs": [],
      "stateMutability": "nonpayable",
      "type": "function"
    },
    {
      "inputs": [
        {
          "internalType": "uint256",
          "name": "_NID",
          "type": "uint256"
        },
        {
          "internalType": "bytes32",
          "name": "_merkleRoot",
          "type": "bytes32"
        }
      ],
      "name": "createCitizenWallet",
      "outputs": [
        {
          "internalType": "address",
          "name": "",
          "type": "address"
        }
      ],
      "stateMutability": "nonpayable",
      "type": "function"
    },
    {
      "inputs": [
        {
          "internalType": "bytes32[]",
          "name": "proof",
          "type": "bytes32[]"
        },
        {
          "internalType": "address",
          "name": "destinationAddress",
          "type": "address"
        },
        {
          "internalType": "string",
          "name": "data",
          "type": "string"
        },
        {
          "internalType": "uint256",
          "name": "_NID",
          "type": "uint256"
        },
        {
          "internalType": "bytes32",
          "name": "newRoot",
          "type": "bytes32"
        }
      ],
      "name": "executeTransction",
      "outputs": [
        {
          "internalType": "bytes",
          "name": "",
          "type": "bytes"
        }
      ],
      "stateMutability": "nonpayable",
      "type": "function"
    },
    {
      "inputs": [],
      "name": "getWalletAddresses",
      "outputs": [
        {
          "internalType": "address[]",
          "name": "",
          "type": "address[]"
        }
      ],
      "stateMutability": "view",
      "type": "function"
    },
    {
      "inputs": [
        {
          "internalType": "address",
          "name": "_verifier",
          "type": "address"
        },
        {
          "internalType": "uint256",
          "name": "_nid",
          "type": "uint256"
        },
        {
          "internalType": "bytes32[]",
          "name": "proof",
          "type": "bytes32[]"
        },
        {
          "internalType": "bytes32",
          "name": "newRoot",
          "type": "bytes32"
        }
      ],
      "name": "grantAccess",
      "outputs": [],
      "stateMutability": "nonpayable",
      "type": "function"
    },
    {
      "inputs": [
        {
          "internalType": "uint256",
          "name": "",
          "type": "uint256"
        }
      ],
      "name": "isBlocked",
      "outputs": [
        {
          "internalType": "bool",
          "name": "",
          "type": "bool"
        }
      ],
      "stateMutability": "view",
      "type": "function"
    },
    {
      "inputs": [],
      "name": "relayer",
      "outputs": [
        {
          "internalType": "address",
          "name": "",
          "type": "address"
        }
      ],
      "stateMutability": "view",
      "type": "function"
    },
    {
      "inputs": [
        {
          "internalType": "address",
          "name": "_verifier",
          "type": "address"
        },
        {
          "internalType": "uint256",
          "name": "_nid",
          "type": "uint256"
        },
        {
          "internalType": "bytes32[]",
          "name": "proof",
          "type": "bytes32[]"
        },
        {
          "internalType": "bytes32",
          "name": "newRoot",
          "type": "bytes32"
        }
      ],
      "name": "revokeAccess",
      "outputs": [],
      "stateMutability": "nonpayable",
      "type": "function"
    },
    {
      "inputs": [
        {
          "internalType": "string",
          "name": "_ipfsHash",
          "type": "string"
        },
        {
          "internalType": "uint256",
          "name": "_nid",
          "type": "uint256"
        },
        {
          "internalType": "bytes32[]",
          "name": "proof",
          "type": "bytes32[]"
        },
        {
          "internalType": "bytes32",
          "name": "newRoot",
          "type": "bytes32"
        }
      ],
      "name": "submitKYC",
      "outputs": [],
      "stateMutability": "nonpayable",
      "type": "function"
    },
    {
      "inputs": [
        {
          "internalType": "address",
          "name": "_to",
          "type": "address"
        },
        {
          "internalType": "uint256",
          "name": "amount",
          "type": "uint256"
        },
        {
          "internalType": "bytes32[]",
          "name": "proof",
          "type": "bytes32[]"
        },
        {
          "internalType": "uint256",
          "name": "_nid",
          "type": "uint256"
        },
        {
          "internalType": "bytes32",
          "name": "newRoot",
          "type": "bytes32"
        }
      ],
      "name": "transferFund",
      "outputs": [],
      "stateMutability": "nonpayable",
      "type": "function"
    },
    {
      "inputs": [
        {
          "internalType": "uint256",
          "name": "_NID",
          "type": "uint256"
        }
      ],
      "name": "unblockCitizen",
      "outputs": [],
      "stateMutability": "nonpayable",
      "type": "function"
    },
    {
      "inputs": [],
      "name": "verifierContract",
      "outputs": [
        {
          "internalType": "address",
          "name": "",
          "type": "address"
        }
      ],
      "stateMutability": "view",
      "type": "function"
    }
  ],
  "bytecode": "0x60806040523480156200001157600080fd5b5060405162004a2c38038062004a2c83398181016040528101906200003791906200016b565b816000806101000a81548173ffffffffffffffffffffffffffffffffffffffff021916908373ffffffffffffffffffffffffffffffffffffffff16021790555033600160006101000a81548173ffffffffffffffffffffffffffffffffffffffff021916908373ffffffffffffffffffffffffffffffffffffffff16021790555080600260006101000a81548173ffffffffffffffffffffffffffffffffffffffff021916908373ffffffffffffffffffffffffffffffffffffffff1602179055505050620001b2565b600080fd5b600073ffffffffffffffffffffffffffffffffffffffff82169050919050565b6000620001338262000106565b9050919050565b620001458162000126565b81146200015157600080fd5b50565b60008151905062000165816200013a565b92915050565b6000806040838503121562000185576200018462000101565b5b6000620001958582860162000154565b9250506020620001a88582860162000154565b9150509250929050565b61486a80620001c26000396000f3fe60806040523480156200001157600080fd5b50600436106200010c5760003560e01c8063a7694ce711620000a5578063bf0f0593116200006f578063bf0f059314620002cd578063bf7e214f14620002ed578063cf695688146200030f578063dc43b2271462000331576200010c565b8063a7694ce71462000237578063a995cac31462000257578063b0aa98c71462000277578063b779fb3614620002ad576200010c565b80637e2e038b11620000e75780637e2e038b14620001875780638406c07914620001bd5780638ada528e14620001df5780638dd1ac2a1462000201576200010c565b80630f73c4d9146200011157806359d05b2314620001475780636e18cad71462000167575b600080fd5b6200012f6004803603810190620001299190620018f2565b62000367565b6040516200013e919062001a44565b60405180910390f35b6200016560048036038101906200015f919062001a68565b620006f0565b005b6200018560048036038101906200017f919062001a9a565b620007b2565b005b620001a560048036038101906200019f919062001a68565b620009e9565b604051620001b4919062001b41565b60405180910390f35b620001c762000a1c565b604051620001d6919062001b41565b60405180910390f35b620001e962000a40565b604051620001f8919062001c2c565b60405180910390f35b6200021f600480360381019062000219919062001c50565b62000b61565b6040516200022e919062001b41565b60405180910390f35b6200025560048036038101906200024f919062001c97565b62000e22565b005b6200027560048036038101906200026f919062001a68565b6200105b565b005b6200029560048036038101906200028f919062001a68565b6200111d565b604051620002a4919062001d69565b60405180910390f35b620002cb6004803603810190620002c5919062001a9a565b6200113d565b005b620002eb6004803603810190620002e5919062001d86565b62001374565b005b620002f7620015c6565b60405162000306919062001b41565b60405180910390f35b62000319620015ec565b60405162000328919062001b41565b60405180910390f35b6200034f600480360381019062000349919062001a68565b62001612565b6040516200035e919062001e41565b60405180910390f35b606060008054906101000a900473ffffffffffffffffffffffffffffffffffffffff1673ffffffffffffffffffffffffffffffffffffffff163373ffffffffffffffffffffffffffffffffffffffff1614620003fa576040517f08c379a0000000000000000000000000000000000000000000000000000000008152600401620003f19062001ebf565b60405180910390fd5b6006600084815260200190815260200160002060009054906101000a900460ff16156200045e576040517f08c379a0000000000000000000000000000000000000000000000000000000008152600401620004559062001f31565b60405180910390fd5b60006003600085815260200190815260200160002060009054906101000a900473ffffffffffffffffffffffffffffffffffffffff1690508073ffffffffffffffffffffffffffffffffffffffff16634783f0ef846040518263ffffffff1660e01b8152600401620004d1919062001e41565b6020604051808303816000875af1158015620004f1573d6000803e3d6000fd5b505050506040513d601f19601f8201168201806040525081019062000517919062001f84565b62000559576040517f08c379a0000000000000000000000000000000000000000000000000000000008152600401620005509062002006565b60405180910390fd5b8073ffffffffffffffffffffffffffffffffffffffff166371cbdc2989896003600089815260200190815260200160002060009054906101000a900473ffffffffffffffffffffffffffffffffffffffff166040518463ffffffff1660e01b8152600401620005cb93929190620020aa565b602060405180830381865afa158015620005e9573d6000803e3d6000fd5b505050506040513d601f19601f820116820180604052508101906200060f919062001f84565b62000651576040517f08c379a0000000000000000000000000000000000000000000000000000000008152600401620006489062002130565b60405180910390fd5b60008173ffffffffffffffffffffffffffffffffffffffff166377a0a82d88888c8c6040518563ffffffff1660e01b81526004016200069494939291906200219e565b6000604051808303816000875af1158015620006b4573d6000803e3d6000fd5b505050506040513d6000823e3d601f19601f82011682018060405250810190620006df91906200229f565b905080925050509695505050505050565b600160009054906101000a900473ffffffffffffffffffffffffffffffffffffffff1673ffffffffffffffffffffffffffffffffffffffff163373ffffffffffffffffffffffffffffffffffffffff161462000783576040517f08c379a00000000000000000000000000000000000000000000000000000000081526004016200077a9062002340565b60405180910390fd5b60016006600083815260200190815260200160002060006101000a81548160ff02191690831515021790555050565b60006003600086815260200190815260200160002060009054906101000a900473ffffffffffffffffffffffffffffffffffffffff1690508073ffffffffffffffffffffffffffffffffffffffff16634783f0ef836040518263ffffffff1660e01b815260040162000825919062001e41565b6020604051808303816000875af115801562000845573d6000803e3d6000fd5b505050506040513d601f19601f820116820180604052508101906200086b919062001f84565b620008ad576040517f08c379a0000000000000000000000000000000000000000000000000000000008152600401620008a49062002006565b60405180910390fd5b8073ffffffffffffffffffffffffffffffffffffffff166371cbdc298585846040518463ffffffff1660e01b8152600401620008ec93929190620020aa565b602060405180830381865afa1580156200090a573d6000803e3d6000fd5b505050506040513d601f19601f8201168201806040525081019062000930919062001f84565b62000972576040517f08c379a00000000000000000000000000000000000000000000000000000000081526004016200096990620023b2565b60405180910390fd5b8073ffffffffffffffffffffffffffffffffffffffff16630ae5e739876040518263ffffffff1660e01b8152600401620009ad919062001b41565b600060405180830381600087803b158015620009c857600080fd5b505af1158015620009dd573d6000803e3d6000fd5b50505050505050505050565b60036020528060005260406000206000915054906101000a900473ffffffffffffffffffffffffffffffffffffffff1681565b60008054906101000a900473ffffffffffffffffffffffffffffffffffffffff1681565b606060008054906101000a900473ffffffffffffffffffffffffffffffffffffffff1673ffffffffffffffffffffffffffffffffffffffff163373ffffffffffffffffffffffffffffffffffffffff161462000ad3576040517f08c379a000000000000000000000000000000000000000000000000000000000815260040162000aca9062001ebf565b60405180910390fd5b600580548060200260200160405190810160405280929190818152602001828054801562000b5757602002820191906000526020600020905b8160009054906101000a900473ffffffffffffffffffffffffffffffffffffffff1673ffffffffffffffffffffffffffffffffffffffff168152602001906001019080831162000b0c575b5050505050905090565b60008060009054906101000a900473ffffffffffffffffffffffffffffffffffffffff1673ffffffffffffffffffffffffffffffffffffffff163373ffffffffffffffffffffffffffffffffffffffff161462000bf5576040517f08c379a000000000000000000000000000000000000000000000000000000000815260040162000bec9062001ebf565b60405180910390fd5b600073ffffffffffffffffffffffffffffffffffffffff166003600085815260200190815260200160002060009054906101000a900473ffffffffffffffffffffffffffffffffffffffff1673ffffffffffffffffffffffffffffffffffffffff161462000c9a576040517f08c379a000000000000000000000000000000000000000000000000000000000815260040162000c919062002424565b60405180910390fd5b60008360008054906101000a900473ffffffffffffffffffffffffffffffffffffffff1684600260009054906101000a900473ffffffffffffffffffffffffffffffffffffffff1660405162000cf0906200162a565b62000cff949392919062002457565b604051809103906000f08015801562000d1c573d6000803e3d6000fd5b509050806003600086815260200190815260200160002060006101000a81548173ffffffffffffffffffffffffffffffffffffffff021916908373ffffffffffffffffffffffffffffffffffffffff1602179055506005819080600181540180825580915050600190039060005260206000200160009091909190916101000a81548173ffffffffffffffffffffffffffffffffffffffff021916908373ffffffffffffffffffffffffffffffffffffffff1602179055508073ffffffffffffffffffffffffffffffffffffffff16847fac438d6f3ecf3c4b28bd084388f494264c62a3f32d7985f4e26c7d1fa47ff63260405160405180910390a38091505092915050565b60006003600086815260200190815260200160002060009054906101000a900473ffffffffffffffffffffffffffffffffffffffff1690508073ffffffffffffffffffffffffffffffffffffffff16634783f0ef836040518263ffffffff1660e01b815260040162000e95919062001e41565b6020604051808303816000875af115801562000eb5573d6000803e3d6000fd5b505050506040513d601f19601f8201168201806040525081019062000edb919062001f84565b62000f1d576040517f08c379a000000000000000000000000000000000000000000000000000000000815260040162000f149062002006565b60405180910390fd5b8073ffffffffffffffffffffffffffffffffffffffff166371cbdc298585846040518463ffffffff1660e01b815260040162000f5c93929190620020aa565b602060405180830381865afa15801562000f7a573d6000803e3d6000fd5b505050506040513d601f19601f8201168201806040525081019062000fa0919062001f84565b62000fe2576040517f08c379a000000000000000000000000000000000000000000000000000000000815260040162000fd990620023b2565b60405180910390fd5b8073ffffffffffffffffffffffffffffffffffffffff16633b03790c87876040518363ffffffff1660e01b81526004016200101f929190620024a4565b600060405180830381600087803b1580156200103a57600080fd5b505af11580156200104f573d6000803e3d6000fd5b50505050505050505050565b600160009054906101000a900473ffffffffffffffffffffffffffffffffffffffff1673ffffffffffffffffffffffffffffffffffffffff163373ffffffffffffffffffffffffffffffffffffffff1614620010ee576040517f08c379a0000000000000000000000000000000000000000000000000000000008152600401620010e59062002340565b60405180910390fd5b60006006600083815260200190815260200160002060006101000a81548160ff02191690831515021790555050565b60066020528060005260406000206000915054906101000a900460ff1681565b60006003600086815260200190815260200160002060009054906101000a900473ffffffffffffffffffffffffffffffffffffffff1690508073ffffffffffffffffffffffffffffffffffffffff16634783f0ef836040518263ffffffff1660e01b8152600401620011b0919062001e41565b6020604051808303816000875af1158015620011d0573d6000803e3d6000fd5b505050506040513d601f19601f82011682018060405250810190620011f6919062001f84565b62001238576040517f08c379a00000000000000000000000000000000000000000000000000000000081526004016200122f9062002006565b60405180910390fd5b8073ffffffffffffffffffffffffffffffffffffffff166371cbdc298585846040518463ffffffff1660e01b81526004016200127793929190620020aa565b602060405180830381865afa15801562001295573d6000803e3d6000fd5b505050506040513d601f19601f82011682018060405250810190620012bb919062001f84565b620012fd576040517f08c379a0000000000000000000000000000000000000000000000000000000008152600401620012f490620023b2565b60405180910390fd5b8073ffffffffffffffffffffffffffffffffffffffff166385e68531876040518263ffffffff1660e01b815260040162001338919062001b41565b600060405180830381600087803b1580156200135357600080fd5b505af115801562001368573d6000803e3d6000fd5b50505050505050505050565b60006003600084815260200190815260200160002060009054906101000a900473ffffffffffffffffffffffffffffffffffffffff1690508073ffffffffffffffffffffffffffffffffffffffff16634783f0ef836040518263ffffffff1660e01b8152600401620013e7919062001e41565b6020604051808303816000875af115801562001407573d6000803e3d6000fd5b505050506040513d601f19601f820116820180604052508101906200142d919062001f84565b6200146f576040517f08c379a0000000000000000000000000000000000000000000000000000000008152600401620014669062002006565b60405180910390fd5b8073ffffffffffffffffffffffffffffffffffffffff166371cbdc298686846040518463ffffffff1660e01b8152600401620014ae93929190620020aa565b602060405180830381865afa158015620014cc573d6000803e3d6000fd5b505050506040513d601f19601f82011682018060405250810190620014f2919062001f84565b62001534576040517f08c379a00000000000000000000000000000000000000000000000000000000081526004016200152b90620023b2565b60405180910390fd5b8073ffffffffffffffffffffffffffffffffffffffff1663e2dc35e088886040518363ffffffff1660e01b815260040162001571929190620024d8565b6000604051808303816000875af115801562001591573d6000803e3d6000fd5b505050506040513d6000823e3d601f19601f82011682018060405250810190620015bc91906200229f565b5050505050505050565b600160009054906101000a900473ffffffffffffffffffffffffffffffffffffffff1681565b600260009054906101000a900473ffffffffffffffffffffffffffffffffffffffff1681565b60046020528060005260406000206000915090505481565b61232f806200250683390190565b6000604051905090565b600080fd5b600080fd5b600080fd5b600080fd5b600080fd5b60008083601f8401126200167457620016736200164c565b5b8235905067ffffffffffffffff81111562001694576200169362001651565b5b602083019150836020820283011115620016b357620016b262001656565b5b9250929050565b600073ffffffffffffffffffffffffffffffffffffffff82169050919050565b6000620016e782620016ba565b9050919050565b620016f981620016da565b81146200170557600080fd5b50565b6000813590506200171981620016ee565b92915050565b600080fd5b6000601f19601f8301169050919050565b7f4e487b7100000000000000000000000000000000000000000000000000000000600052604160045260246000fd5b6200176f8262001724565b810181811067ffffffffffffffff8211171562001791576200179062001735565b5b80604052505050565b6000620017a662001638565b9050620017b4828262001764565b919050565b600067ffffffffffffffff821115620017d757620017d662001735565b5b620017e28262001724565b9050602081019050919050565b82818337600083830152505050565b6000620018156200180f84620017b9565b6200179a565b9050828152602081018484840111156200183457620018336200171f565b5b62001841848285620017ef565b509392505050565b600082601f8301126200186157620018606200164c565b5b813562001873848260208601620017fe565b91505092915050565b6000819050919050565b62001891816200187c565b81146200189d57600080fd5b50565b600081359050620018b18162001886565b92915050565b6000819050919050565b620018cc81620018b7565b8114620018d857600080fd5b50565b600081359050620018ec81620018c1565b92915050565b60008060008060008060a0878903121562001912576200191162001642565b5b600087013567ffffffffffffffff81111562001933576200193262001647565b5b6200194189828a016200165b565b965096505060206200195689828a0162001708565b945050604087013567ffffffffffffffff8111156200197a576200197962001647565b5b6200198889828a0162001849565b93505060606200199b89828a01620018a0565b9250506080620019ae89828a01620018db565b9150509295509295509295565b600081519050919050565b600082825260208201905092915050565b60005b83811015620019f7578082015181840152602081019050620019da565b60008484015250505050565b600062001a1082620019bb565b62001a1c8185620019c6565b935062001a2e818560208601620019d7565b62001a398162001724565b840191505092915050565b6000602082019050818103600083015262001a60818462001a03565b905092915050565b60006020828403121562001a815762001a8062001642565b5b600062001a9184828501620018a0565b91505092915050565b60008060008060006080868803121562001ab95762001ab862001642565b5b600062001ac98882890162001708565b955050602062001adc88828901620018a0565b945050604086013567ffffffffffffffff81111562001b005762001aff62001647565b5b62001b0e888289016200165b565b9350935050606062001b2388828901620018db565b9150509295509295909350565b62001b3b81620016da565b82525050565b600060208201905062001b58600083018462001b30565b92915050565b600081519050919050565b600082825260208201905092915050565b6000819050602082019050919050565b62001b9581620016da565b82525050565b600062001ba9838362001b8a565b60208301905092915050565b6000602082019050919050565b600062001bcf8262001b5e565b62001bdb818562001b69565b935062001be88362001b7a565b8060005b8381101562001c1f57815162001c03888262001b9b565b975062001c108362001bb5565b92505060018101905062001bec565b5085935050505092915050565b6000602082019050818103600083015262001c48818462001bc2565b905092915050565b6000806040838503121562001c6a5762001c6962001642565b5b600062001c7a85828601620018a0565b925050602062001c8d85828601620018db565b9150509250929050565b60008060008060006080868803121562001cb65762001cb562001642565b5b600086013567ffffffffffffffff81111562001cd75762001cd662001647565b5b62001ce58882890162001849565b955050602062001cf888828901620018a0565b945050604086013567ffffffffffffffff81111562001d1c5762001d1b62001647565b5b62001d2a888289016200165b565b9350935050606062001d3f88828901620018db565b9150509295509295909350565b60008115159050919050565b62001d638162001d4c565b82525050565b600060208201905062001d80600083018462001d58565b92915050565b60008060008060008060a0878903121562001da65762001da562001642565b5b600062001db689828a0162001708565b965050602062001dc989828a01620018a0565b955050604087013567ffffffffffffffff81111562001ded5762001dec62001647565b5b62001dfb89828a016200165b565b9450945050606062001e1089828a01620018a0565b925050608062001e2389828a01620018db565b9150509295509295509295565b62001e3b81620018b7565b82525050565b600060208201905062001e58600083018462001e30565b92915050565b600082825260208201905092915050565b7f596f7520617265206e6f74207468652072656c61796572000000000000000000600082015250565b600062001ea760178362001e5e565b915062001eb48262001e6f565b602082019050919050565b6000602082019050818103600083015262001eda8162001e98565b9050919050565b7f436974697a656e20697320626c6f636b65640000000000000000000000000000600082015250565b600062001f1960128362001e5e565b915062001f268262001ee1565b602082019050919050565b6000602082019050818103600083015262001f4c8162001f0a565b9050919050565b62001f5e8162001d4c565b811462001f6a57600080fd5b50565b60008151905062001f7e8162001f53565b92915050565b60006020828403121562001f9d5762001f9c62001642565b5b600062001fad8482850162001f6d565b91505092915050565b7f557064617465206661696c656400000000000000000000000000000000000000600082015250565b600062001fee600d8362001e5e565b915062001ffb8262001fb6565b602082019050919050565b60006020820190508181036000830152620020218162001fdf565b9050919050565b600082825260208201905092915050565b600080fd5b82818337505050565b600062002055838562002028565b93507f07ffffffffffffffffffffffffffffffffffffffffffffffffffffffffffffff8311156200208b576200208a62002039565b5b6020830292506200209e8385846200203e565b82840190509392505050565b60006040820190508181036000830152620020c781858762002047565b9050620020d8602083018462001b30565b949350505050565b7f496e76616c69642070726f6f66206f72206e6f7420617574686f72697a65642e600082015250565b60006200211860208362001e5e565b91506200212582620020e0565b602082019050919050565b600060208201905081810360008301526200214b8162002109565b9050919050565b600081519050919050565b60006200216a8262002152565b62002176818562001e5e565b935062002188818560208601620019d7565b620021938162001724565b840191505092915050565b6000606082019050620021b5600083018762001b30565b8181036020830152620021c981866200215d565b90508181036040830152620021e081848662002047565b905095945050505050565b600067ffffffffffffffff82111562002209576200220862001735565b5b620022148262001724565b9050602081019050919050565b6000620022386200223284620021eb565b6200179a565b9050828152602081018484840111156200225757620022566200171f565b5b62002264848285620019d7565b509392505050565b600082601f8301126200228457620022836200164c565b5b81516200229684826020860162002221565b91505092915050565b600060208284031215620022b857620022b762001642565b5b600082015167ffffffffffffffff811115620022d957620022d862001647565b5b620022e7848285016200226c565b91505092915050565b7f596f7520617265206e6f742074686520617574686f7269747900000000000000600082015250565b60006200232860198362001e5e565b91506200233582620022f0565b602082019050919050565b600060208201905081810360008301526200235b8162002319565b9050919050565b7f50726f6f6620766572696669636174696f6e206661696c656400000000000000600082015250565b60006200239a60198362001e5e565b9150620023a78262002362565b602082019050919050565b60006020820190508181036000830152620023cd816200238b565b9050919050565b7f436974697a656e20616c72656164792068617320612077616c6c657400000000600082015250565b60006200240c601c8362001e5e565b91506200241982620023d4565b602082019050919050565b600060208201905081810360008301526200243f81620023fd565b9050919050565b62002451816200187c565b82525050565b60006080820190506200246e600083018762002446565b6200247d602083018662001b30565b6200248c604083018562001e30565b6200249b606083018462001b30565b95945050505050565b60006040820190508181036000830152620024c081856200215d565b9050620024d1602083018462002446565b9392505050565b6000604082019050620024ef600083018562001b30565b620024fe602083018462002446565b939250505056fe60806040523480156200001157600080fd5b506040516200232f3803806200232f8339818101604052810190620000379190620001f2565b8360008190555033600160006101000a81548173ffffffffffffffffffffffffffffffffffffffff021916908373ffffffffffffffffffffffffffffffffffffffff16021790555082600260006101000a81548173ffffffffffffffffffffffffffffffffffffffff021916908373ffffffffffffffffffffffffffffffffffffffff1602179055508160068190555080600360006101000a81548173ffffffffffffffffffffffffffffffffffffffff021916908373ffffffffffffffffffffffffffffffffffffffff1602179055505050505062000264565b600080fd5b6000819050919050565b6200012c8162000117565b81146200013857600080fd5b50565b6000815190506200014c8162000121565b92915050565b600073ffffffffffffffffffffffffffffffffffffffff82169050919050565b60006200017f8262000152565b9050919050565b620001918162000172565b81146200019d57600080fd5b50565b600081519050620001b18162000186565b92915050565b6000819050919050565b620001cc81620001b7565b8114620001d857600080fd5b50565b600081519050620001ec81620001c1565b92915050565b600080600080608085870312156200020f576200020e62000112565b5b60006200021f878288016200013b565b94505060206200023287828801620001a0565b93505060406200024587828801620001db565b92505060606200025887828801620001a0565b91505092959194509250565b6120bb80620002746000396000f3fe6080604052600436106100c65760003560e01c80638406c0791161007f5780639114448d116100595780639114448d14610280578063c242e105146102ab578063d8c4661c146102d6578063e2dc35e014610301576100cd565b80638406c0791461020357806385e685311461022e5780638f83ab1314610257576100cd565b80630ae5e739146100cf57806319a2887d146100f85780633b03790c146101235780634783f0ef1461014c57806371cbdc291461018957806377a0a82d146101c6576100cd565b366100cd57005b005b3480156100db57600080fd5b506100f660048036038101906100f19190611088565b61033e565b005b34801561010457600080fd5b5061010d610464565b60405161011a9190611253565b60405180910390f35b34801561012f57600080fd5b5061014a600480360381019061014591906113e0565b6105ab565b005b34801561015857600080fd5b50610173600480360381019061016e9190611472565b6106f8565b60405161018091906114ba565b60405180910390f35b34801561019557600080fd5b506101b060048036038101906101ab919061159d565b61079a565b6040516101bd91906114ba565b60405180910390f35b3480156101d257600080fd5b506101ed60048036038101906101e89190611654565b6107dc565b6040516101fa919061172e565b60405180910390f35b34801561020f57600080fd5b50610218610ae0565b604051610225919061175f565b60405180910390f35b34801561023a57600080fd5b5061025560048036038101906102509190611088565b610b06565b005b34801561026357600080fd5b5061027e60048036038101906102799190611088565b610c2c565b005b34801561028c57600080fd5b50610295610d00565b6040516102a29190611891565b60405180910390f35b3480156102b757600080fd5b506102c0610e52565b6040516102cd919061175f565b60405180910390f35b3480156102e257600080fd5b506102eb610e78565b6040516102f891906118c2565b60405180910390f35b34801561030d57600080fd5b50610328600480360381019061032391906118dd565b610e81565b604051610335919061172e565b60405180910390f35b600160009054906101000a900473ffffffffffffffffffffffffffffffffffffffff1673ffffffffffffffffffffffffffffffffffffffff163373ffffffffffffffffffffffffffffffffffffffff16146103ce576040517f08c379a00000000000000000000000000000000000000000000000000000000081526004016103c59061197a565b60405180910390fd5b6000600360009054906101000a900473ffffffffffffffffffffffffffffffffffffffff1690508073ffffffffffffffffffffffffffffffffffffffff16630ae5e739836040518263ffffffff1660e01b815260040161042e919061175f565b600060405180830381600087803b15801561044857600080fd5b505af115801561045c573d6000803e3d6000fd5b505050505050565b60606004805480602002602001604051908101604052809291908181526020016000905b828210156105a257838290600052602060002090600202016040518060400160405290816000820160009054906101000a900473ffffffffffffffffffffffffffffffffffffffff1673ffffffffffffffffffffffffffffffffffffffff1673ffffffffffffffffffffffffffffffffffffffff168152602001600182018054610511906119c9565b80601f016020809104026020016040519081016040528092919081815260200182805461053d906119c9565b801561058a5780601f1061055f5761010080835404028352916020019161058a565b820191906000526020600020905b81548152906001019060200180831161056d57829003601f168201915b50505050508152505081526020019060010190610488565b50505050905090565b600160009054906101000a900473ffffffffffffffffffffffffffffffffffffffff1673ffffffffffffffffffffffffffffffffffffffff163373ffffffffffffffffffffffffffffffffffffffff161461063b576040517f08c379a00000000000000000000000000000000000000000000000000000000081526004016106329061197a565b60405180910390fd5b6000600360009054906101000a900473ffffffffffffffffffffffffffffffffffffffff1690508073ffffffffffffffffffffffffffffffffffffffff16631658145a8484600160009054906101000a900473ffffffffffffffffffffffffffffffffffffffff166040518463ffffffff1660e01b81526004016106c193929190611a33565b600060405180830381600087803b1580156106db57600080fd5b505af11580156106ef573d6000803e3d6000fd5b50505050505050565b6000600160009054906101000a900473ffffffffffffffffffffffffffffffffffffffff1673ffffffffffffffffffffffffffffffffffffffff163373ffffffffffffffffffffffffffffffffffffffff161461078a576040517f08c379a00000000000000000000000000000000000000000000000000000000081526004016107819061197a565b60405180910390fd5b8160068190555060019050919050565b600080826040516020016107ae9190611ab9565b6040516020818303038152906040528051906020012090506107d38460065483610f3c565b91505092915050565b6060600260009054906101000a900473ffffffffffffffffffffffffffffffffffffffff1673ffffffffffffffffffffffffffffffffffffffff163373ffffffffffffffffffffffffffffffffffffffff161461086e576040517f08c379a000000000000000000000000000000000000000000000000000000000815260040161086590611b20565b60405180910390fd5b82826108bb828280806020026020016040519081016040528093929190818152602001838360200280828437600081840152601f19601f820116905080830192505050505050503361079a565b6108fa576040517f08c379a00000000000000000000000000000000000000000000000000000000081526004016108f190611b8c565b60405180910390fd5b60008660405160200161090d9190611be8565b60405160208183030381529060405290506000808973ffffffffffffffffffffffffffffffffffffffff16836040516109469190611c3b565b6000604051808303816000865af19150503d8060008114610983576040519150601f19603f3d011682016040523d82523d6000602084013e610988565b606091505b5091509150816109cd576040517f08c379a00000000000000000000000000000000000000000000000000000000081526004016109c490611cc4565b60405180910390fd5b600460405180604001604052808c73ffffffffffffffffffffffffffffffffffffffff16815260200185815250908060018154018082558091505060019003906000526020600020906002020160009091909190915060008201518160000160006101000a81548173ffffffffffffffffffffffffffffffffffffffff021916908373ffffffffffffffffffffffffffffffffffffffff1602179055506020820151816001019081610a7f9190611e90565b5050508973ffffffffffffffffffffffffffffffffffffffff167f4caa3d439f4283405894f4e0cfd5048dd9d2053f060359ddb97be19cadf8095e84604051610ac8919061172e565b60405180910390a28095505050505050949350505050565b600260009054906101000a900473ffffffffffffffffffffffffffffffffffffffff1681565b600160009054906101000a900473ffffffffffffffffffffffffffffffffffffffff1673ffffffffffffffffffffffffffffffffffffffff163373ffffffffffffffffffffffffffffffffffffffff1614610b96576040517f08c379a0000000000000000000000000000000000000000000000000000000008152600401610b8d9061197a565b60405180910390fd5b6000600360009054906101000a900473ffffffffffffffffffffffffffffffffffffffff1690508073ffffffffffffffffffffffffffffffffffffffff166385e68531836040518263ffffffff1660e01b8152600401610bf6919061175f565b600060405180830381600087803b158015610c1057600080fd5b505af1158015610c24573d6000803e3d6000fd5b505050505050565b600160009054906101000a900473ffffffffffffffffffffffffffffffffffffffff1673ffffffffffffffffffffffffffffffffffffffff163373ffffffffffffffffffffffffffffffffffffffff1614610cbc576040517f08c379a0000000000000000000000000000000000000000000000000000000008152600401610cb39061197a565b60405180910390fd5b80600260006101000a81548173ffffffffffffffffffffffffffffffffffffffff021916908373ffffffffffffffffffffffffffffffffffffffff16021790555050565b6060600060048054905067ffffffffffffffff811115610d2357610d2261127f565b5b604051908082528060200260200182016040528015610d5657816020015b6060815260200190600190039081610d415790505b50905060005b600480549050811015610e4a57610e1f60048281548110610d8057610d7f611f62565b5b90600052602060002090600202016001018054610d9c906119c9565b80601f0160208091040260200160405190810160405280929190818152602001828054610dc8906119c9565b8015610e155780601f10610dea57610100808354040283529160200191610e15565b820191906000526020600020905b815481529060010190602001808311610df857829003601f168201915b5050505050610fed565b828281518110610e3257610e31611f62565b5b60200260200101819052508080600101915050610d5c565b508091505090565b600160009054906101000a900473ffffffffffffffffffffffffffffffffffffffff1681565b60008054905090565b60606000808473ffffffffffffffffffffffffffffffffffffffff1684604051610eaa90611fb7565b60006040518083038185875af1925050503d8060008114610ee7576040519150601f19603f3d011682016040523d82523d6000602084013e610eec565b606091505b509150915081610f31576040517f08c379a0000000000000000000000000000000000000000000000000000000008152600401610f2890612018565b60405180910390fd5b809250505092915050565b60008082905060005b8551811015610fdf576000868281518110610f6357610f62611f62565b5b6020026020010151905080831015610fa5578281604051602001610f88929190612059565b604051602081830303815290604052805190602001209250610fd1565b8083604051602001610fb8929190612059565b6040516020818303038152906040528051906020012092505b508080600101915050610f45565b508381149150509392505050565b606081604051602001611000919061172e565b6040516020818303038152906040529050919050565b6000604051905090565b600080fd5b600080fd5b600073ffffffffffffffffffffffffffffffffffffffff82169050919050565b60006110558261102a565b9050919050565b6110658161104a565b811461107057600080fd5b50565b6000813590506110828161105c565b92915050565b60006020828403121561109e5761109d611020565b5b60006110ac84828501611073565b91505092915050565b600081519050919050565b600082825260208201905092915050565b6000819050602082019050919050565b6110ea8161104a565b82525050565b600081519050919050565b600082825260208201905092915050565b60005b8381101561112a57808201518184015260208101905061110f565b60008484015250505050565b6000601f19601f8301169050919050565b6000611152826110f0565b61115c81856110fb565b935061116c81856020860161110c565b61117581611136565b840191505092915050565b600060408301600083015161119860008601826110e1565b50602083015184820360208601526111b08282611147565b9150508091505092915050565b60006111c98383611180565b905092915050565b6000602082019050919050565b60006111e9826110b5565b6111f381856110c0565b935083602082028501611205856110d1565b8060005b85811015611241578484038952815161122285826111bd565b945061122d836111d1565b925060208a01995050600181019050611209565b50829750879550505050505092915050565b6000602082019050818103600083015261126d81846111de565b905092915050565b600080fd5b600080fd5b7f4e487b7100000000000000000000000000000000000000000000000000000000600052604160045260246000fd5b6112b782611136565b810181811067ffffffffffffffff821117156112d6576112d561127f565b5b80604052505050565b60006112e9611016565b90506112f582826112ae565b919050565b600067ffffffffffffffff8211156113155761131461127f565b5b61131e82611136565b9050602081019050919050565b82818337600083830152505050565b600061134d611348846112fa565b6112df565b9050828152602081018484840111156113695761136861127a565b5b61137484828561132b565b509392505050565b600082601f83011261139157611390611275565b5b81356113a184826020860161133a565b91505092915050565b6000819050919050565b6113bd816113aa565b81146113c857600080fd5b50565b6000813590506113da816113b4565b92915050565b600080604083850312156113f7576113f6611020565b5b600083013567ffffffffffffffff81111561141557611414611025565b5b6114218582860161137c565b9250506020611432858286016113cb565b9150509250929050565b6000819050919050565b61144f8161143c565b811461145a57600080fd5b50565b60008135905061146c81611446565b92915050565b60006020828403121561148857611487611020565b5b60006114968482850161145d565b91505092915050565b60008115159050919050565b6114b48161149f565b82525050565b60006020820190506114cf60008301846114ab565b92915050565b600067ffffffffffffffff8211156114f0576114ef61127f565b5b602082029050602081019050919050565b600080fd5b6000611519611514846114d5565b6112df565b9050808382526020820190506020840283018581111561153c5761153b611501565b5b835b818110156115655780611551888261145d565b84526020840193505060208101905061153e565b5050509392505050565b600082601f83011261158457611583611275565b5b8135611594848260208601611506565b91505092915050565b600080604083850312156115b4576115b3611020565b5b600083013567ffffffffffffffff8111156115d2576115d1611025565b5b6115de8582860161156f565b92505060206115ef85828601611073565b9150509250929050565b600080fd5b60008083601f84011261161457611613611275565b5b8235905067ffffffffffffffff811115611631576116306115f9565b5b60208301915083602082028301111561164d5761164c611501565b5b9250929050565b6000806000806060858703121561166e5761166d611020565b5b600061167c87828801611073565b945050602085013567ffffffffffffffff81111561169d5761169c611025565b5b6116a98782880161137c565b935050604085013567ffffffffffffffff8111156116ca576116c9611025565b5b6116d6878288016115fe565b925092505092959194509250565b600082825260208201905092915050565b6000611700826110f0565b61170a81856116e4565b935061171a81856020860161110c565b61172381611136565b840191505092915050565b6000602082019050818103600083015261174881846116f5565b905092915050565b6117598161104a565b82525050565b60006020820190506117746000830184611750565b92915050565b600081519050919050565b600082825260208201905092915050565b6000819050602082019050919050565b600081519050919050565b600082825260208201905092915050565b60006117cd826117a6565b6117d781856117b1565b93506117e781856020860161110c565b6117f081611136565b840191505092915050565b600061180783836117c2565b905092915050565b6000602082019050919050565b60006118278261177a565b6118318185611785565b93508360208202850161184385611796565b8060005b8581101561187f578484038952815161186085826117fb565b945061186b8361180f565b925060208a01995050600181019050611847565b50829750879550505050505092915050565b600060208201905081810360008301526118ab818461181c565b905092915050565b6118bc816113aa565b82525050565b60006020820190506118d760008301846118b3565b92915050565b600080604083850312156118f4576118f3611020565b5b600061190285828601611073565b9250506020611913858286016113cb565b9150509250929050565b600082825260208201905092915050565b7f596f7520617265206e6f742074686520617574686f7269747900000000000000600082015250565b600061196460198361191d565b915061196f8261192e565b602082019050919050565b6000602082019050818103600083015261199381611957565b9050919050565b7f4e487b7100000000000000000000000000000000000000000000000000000000600052602260045260246000fd5b600060028204905060018216806119e157607f821691505b6020821081036119f4576119f361199a565b5b50919050565b6000611a05826117a6565b611a0f818561191d565b9350611a1f81856020860161110c565b611a2881611136565b840191505092915050565b60006060820190508181036000830152611a4d81866119fa565b9050611a5c60208301856118b3565b611a696040830184611750565b949350505050565b60008160601b9050919050565b6000611a8982611a71565b9050919050565b6000611a9b82611a7e565b9050919050565b611ab3611aae8261104a565b611a90565b82525050565b6000611ac58284611aa2565b60148201915081905092915050565b7f596f7520617265206e6f74207468652052656c61796572000000000000000000600082015250565b6000611b0a60178361191d565b9150611b1582611ad4565b602082019050919050565b60006020820190508181036000830152611b3981611afd565b9050919050565b7f496e76616c69642070726f6f66206f72206e6f7420617574686f72697a65642e600082015250565b6000611b7660208361191d565b9150611b8182611b40565b602082019050919050565b60006020820190508181036000830152611ba581611b69565b9050919050565b600081905092915050565b6000611bc2826117a6565b611bcc8185611bac565b9350611bdc81856020860161110c565b80840191505092915050565b6000611bf48284611bb7565b915081905092915050565b600081905092915050565b6000611c15826110f0565b611c1f8185611bff565b9350611c2f81856020860161110c565b80840191505092915050565b6000611c478284611c0a565b915081905092915050565b7f4f6e6c792052656c617965722063616e2065786563757465207468652074726160008201527f6e736374696f6e00000000000000000000000000000000000000000000000000602082015250565b6000611cae60278361191d565b9150611cb982611c52565b604082019050919050565b60006020820190508181036000830152611cdd81611ca1565b9050919050565b60008190508160005260206000209050919050565b60006020601f8301049050919050565b600082821b905092915050565b600060088302611d467fffffffffffffffffffffffffffffffffffffffffffffffffffffffffffffffff82611d09565b611d508683611d09565b95508019841693508086168417925050509392505050565b6000819050919050565b6000611d8d611d88611d83846113aa565b611d68565b6113aa565b9050919050565b6000819050919050565b611da783611d72565b611dbb611db382611d94565b848454611d16565b825550505050565b600090565b611dd0611dc3565b611ddb818484611d9e565b505050565b5b81811015611dff57611df4600082611dc8565b600181019050611de1565b5050565b601f821115611e4457611e1581611ce4565b611e1e84611cf9565b81016020851015611e2d578190505b611e41611e3985611cf9565b830182611de0565b50505b505050565b600082821c905092915050565b6000611e6760001984600802611e49565b1980831691505092915050565b6000611e808383611e56565b9150826002028217905092915050565b611e99826110f0565b67ffffffffffffffff811115611eb257611eb161127f565b5b611ebc82546119c9565b611ec7828285611e03565b600060209050601f831160018114611efa5760008415611ee8578287015190505b611ef28582611e74565b865550611f5a565b601f198416611f0886611ce4565b60005b82811015611f3057848901518255600182019150602085019450602081019050611f0b565b86831015611f4d5784890151611f49601f891682611e56565b8355505b6001600288020188555050505b505050505050565b7f4e487b7100000000000000000000000000000000000000000000000000000000600052603260045260246000fd5b50565b6000611fa1600083611bff565b9150611fac82611f91565b600082019050919050565b6000611fc282611f94565b9150819050919050565b7f5472616e73666572206661696c65642e00000000000000000000000000000000600082015250565b600061200260108361191d565b915061200d82611fcc565b602082019050919050565b6000602082019050818103600083015261203181611ff5565b9050919050565b6000819050919050565b61205361204e8261143c565b612038565b82525050565b60006120658285612042565b6020820191506120758284612042565b602082019150819050939250505056fea2646970667358221220d5ea0b00ee9939526f427636d7d0df1664ddce060fd4cd546a61c0118170b08f64736f6c63430008180033a2646970667358221220f0dcc020fb1ab1e98c4cf28c83aedb9e84e728b8f6ea614274bcdeff0f92a21a64736f6c63430008180033",
  "linkReferences": {},
  "deployedLinkReferences": {}
}