{
  "_format": "hh-sol-artifact-1",
  "contractName": "KYCRegistryV32",
  "sourceName": "contracts/KYCRegisterV3_2.sol",
  "abi": [
    {
      "inputs": [],
      "name": "InvalidInitialization",
      "type": "error"
    },
    {
      "inputs": [],
      "name": "NotInitializing",
      "type": "error"
    },
    {
      "anonymous": false,
      "inputs": [
        {
          "indexed": false,
          "internalType": "uint64",
          "name": "version",
          "type": "uint64"
        }
      ],
      "name": "Initialized",
      "type": "event"
    },
    {
      "anonymous": false,
      "inputs": [
        {
          "indexed": true,
          "internalType": "address",
          "name": "user",
          "type": "address"
        },
        {
          "indexed": false,
          "internalType": "string",
          "name": "ipfsHash",
          "type": "string"
        }
      ],
      "name": "KYCSubmitted",
      "type": "event"
    },
    {
      "anonymous": false,
      "inputs": [
        {
          "indexed": true,
          "internalType": "address",
          "name": "user",
          "type": "address"
        },
        {
          "indexed": false,
          "internalType": "bool",
          "name": "verified",
          "type": "bool"
        }
      ],
      "name": "KYCVerified",
      "type": "event"
    },
    {
      "anonymous": false,
      "inputs": [
        {
          "indexed": true,
          "internalType": "address",
          "name": "user",
          "type": "address"
        },
        {
          "indexed": false,
          "internalType": "address",
          "name": "verifier",
          "type": "address"
        }
      ],
      "name": "VerifierAccessGranted",
      "type": "event"
    },
    {
      "anonymous": false,
      "inputs": [
        {
          "indexed": true,
          "internalType": "address",
          "name": "user",
          "type": "address"
        },
        {
          "indexed": false,
          "internalType": "address",
          "name": "verifier",
          "type": "address"
        }
      ],
      "name": "VerifierAccessRevoked",
      "type": "event"
    },
    {
      "inputs": [
        {
          "internalType": "address",
          "name": "_verifier",
          "type": "address"
        }
      ],
      "name": "addVerifier",
      "outputs": [],
      "stateMutability": "nonpayable",
      "type": "function"
    },
    {
      "inputs": [],
      "name": "authority",
      "outputs": [
        {
          "internalType": "address",
          "name": "",
          "type": "address"
        }
      ],
      "stateMutability": "view",
      "type": "function"
    },
    {
      "inputs": [
        {
          "internalType": "address",
          "name": "_verifier",
          "type": "address"
        }
      ],
      "name": "disableVerifier",
      "outputs": [],
      "stateMutability": "nonpayable",
      "type": "function"
    },
    {
      "inputs": [
        {
          "internalType": "address",
          "name": "_user",
          "type": "address"
        }
      ],
      "name": "getKYCData",
      "outputs": [
        {
          "components": [
            {
              "internalType": "string",
              "name": "ipfsHash",
              "type": "string"
            },
            {
              "internalType": "bool",
              "name": "verified",
              "type": "bool"
            },
            {
              "internalType": "uint256",
              "name": "time",
              "type": "uint256"
            }
          ],
          "internalType": "struct KYCRegistry.KYCData",
          "name": "",
          "type": "tuple"
        }
      ],
      "stateMutability": "view",
      "type": "function"
    },
    {
      "inputs": [
        {
          "internalType": "address",
          "name": "_org",
          "type": "address"
        }
      ],
      "name": "getOrgAccessKYC",
      "outputs": [
        {
          "internalType": "address[]",
          "name": "",
          "type": "address[]"
        }
      ],
      "stateMutability": "view",
      "type": "function"
    },
    {
      "inputs": [
        {
          "internalType": "uint256",
          "name": "_nid",
          "type": "uint256"
        }
      ],
      "name": "getWalletOwner",
      "outputs": [
        {
          "internalType": "address",
          "name": "",
          "type": "address"
        }
      ],
      "stateMutability": "view",
      "type": "function"
    },
    {
      "inputs": [
        {
          "internalType": "address",
          "name": "_verifier",
          "type": "address"
        }
      ],
      "name": "grantAccess",
      "outputs": [],
      "stateMutability": "nonpayable",
      "type": "function"
    },
    {
      "inputs": [
        {
          "internalType": "address",
          "name": "_verifier",
          "type": "address"
        }
      ],
      "name": "grantAccessCheck",
      "outputs": [
        {
          "internalType": "bool",
          "name": "",
          "type": "bool"
        }
      ],
      "stateMutability": "view",
      "type": "function"
    },
    {
      "inputs": [],
      "name": "initialize",
      "outputs": [],
      "stateMutability": "nonpayable",
      "type": "function"
    },
    {
      "inputs": [
        {
          "internalType": "address",
          "name": "",
          "type": "address"
        }
      ],
      "name": "listOfVerifier",
      "outputs": [
        {
          "internalType": "bool",
          "name": "",
          "type": "bool"
        }
      ],
      "stateMutability": "view",
      "type": "function"
    },
    {
      "inputs": [
        {
          "internalType": "address",
          "name": "",
          "type": "address"
        },
        {
          "internalType": "uint256",
          "name": "",
          "type": "uint256"
        }
      ],
      "name": "orgToCitizens",
      "outputs": [
        {
          "internalType": "address",
          "name": "",
          "type": "address"
        }
      ],
      "stateMutability": "view",
      "type": "function"
    },
    {
      "inputs": [
        {
          "internalType": "address",
          "name": "_verifier",
          "type": "address"
        }
      ],
      "name": "revokeAccess",
      "outputs": [],
      "stateMutability": "nonpayable",
      "type": "function"
    },
    {
      "inputs": [
        {
          "internalType": "address",
          "name": "_walletContract",
          "type": "address"
        }
      ],
      "name": "setWalletContract",
      "outputs": [],
      "stateMutability": "nonpayable",
      "type": "function"
    },
    {
      "inputs": [
        {
          "internalType": "string",
          "name": "_ipfsHash",
          "type": "string"
        },
        {
          "internalType": "uint256",
          "name": "_nid",
          "type": "uint256"
        }
      ],
      "name": "submitKYC",
      "outputs": [],
      "stateMutability": "nonpayable",
      "type": "function"
    },
    {
      "inputs": [
        {
          "internalType": "address",
          "name": "",
          "type": "address"
        },
        {
          "internalType": "uint256",
          "name": "",
          "type": "uint256"
        }
      ],
      "name": "userGrantedAccess",
      "outputs": [
        {
          "internalType": "address",
          "name": "",
          "type": "address"
        }
      ],
      "stateMutability": "view",
      "type": "function"
    },
    {
      "inputs": [
        {
          "internalType": "address",
          "name": "",
          "type": "address"
        },
        {
          "internalType": "address",
          "name": "",
          "type": "address"
        }
      ],
      "name": "verifierPermissions",
      "outputs": [
        {
          "internalType": "bool",
          "name": "",
          "type": "bool"
        }
      ],
      "stateMutability": "view",
      "type": "function"
    },
    {
      "inputs": [
        {
          "internalType": "address",
          "name": "_user",
          "type": "address"
        },
        {
          "internalType": "bool",
          "name": "_verified",
          "type": "bool"
        }
      ],
      "name": "verifyKYC",
      "outputs": [],
      "stateMutability": "nonpayable",
      "type": "function"
    },
    {
      "inputs": [],
      "name": "walletContract",
      "outputs": [
        {
          "internalType": "contract IWalletContract",
          "name": "",
          "type": "address"
        }
      ],
      "stateMutability": "view",
      "type": "function"
    }
  ],
  "bytecode": "0x608060405234801561001057600080fd5b50612b47806100206000396000f3fe608060405234801561001057600080fd5b50600436106101165760003560e01c8063aa2270c3116100a2578063bf7e214f11610071578063bf7e214f146102d9578063cc346726146102f7578063d0ed5c2f14610327578063d114ba2714610345578063d90c12f91461037557610116565b8063aa2270c31461022d578063ab47a2f91461025d578063b4a688d11461028d578063b9a0a5a5146102a957610116565b8063474adb8f116100e9578063474adb8f1461019f5780638129fc1c146101bb57806385e68531146101c55780639000b3d6146101e1578063978575ea146101fd57610116565b80630ae5e7391461011b57806327ccdbc5146101375780633b03790c1461015357806344cfd4561461016f575b600080fd5b61013560048036038101906101309190611c3b565b6103a5565b005b610151600480360381019061014c9190611c3b565b6106a0565b005b61016d60048036038101906101689190611de4565b610772565b005b61018960048036038101906101849190611e40565b610902565b6040516101969190611e7c565b60405180910390f35b6101b960048036038101906101b49190611ecf565b6109a7565b005b6101c3610c2c565b005b6101df60048036038101906101da9190611c3b565b610df1565b005b6101fb60048036038101906101f69190611c3b565b611275565b005b61021760048036038101906102129190611f0f565b61135e565b6040516102249190611e7c565b60405180910390f35b61024760048036038101906102429190611f4f565b6113ac565b6040516102549190611f9e565b60405180910390f35b61027760048036038101906102729190611c3b565b6113db565b60405161028491906120a6565b60405180910390f35b6102a760048036038101906102a29190611c3b565b6116c4565b005b6102c360048036038101906102be9190611f0f565b6117ad565b6040516102d09190611e7c565b60405180910390f35b6102e16117fb565b6040516102ee9190611e7c565b60405180910390f35b610311600480360381019061030c9190611c3b565b61181f565b60405161031e9190611f9e565b60405180910390f35b61032f61183f565b60405161033c9190612127565b60405180910390f35b61035f600480360381019061035a9190611c3b565b611865565b60405161036c9190612200565b60405180910390f35b61038f600480360381019061038a9190611c3b565b6119be565b60405161039c9190611f9e565b60405180910390f35b600260008273ffffffffffffffffffffffffffffffffffffffff1673ffffffffffffffffffffffffffffffffffffffff16815260200190815260200160002060009054906101000a900460ff16610431576040517f08c379a00000000000000000000000000000000000000000000000000000000081526004016104289061227f565b60405180910390fd5b61043a816119be565b1561047a576040517f08c379a0000000000000000000000000000000000000000000000000000000008152600401610471906122eb565b60405180910390fd5b6001600360003373ffffffffffffffffffffffffffffffffffffffff1673ffffffffffffffffffffffffffffffffffffffff16815260200190815260200160002060008373ffffffffffffffffffffffffffffffffffffffff1673ffffffffffffffffffffffffffffffffffffffff16815260200190815260200160002060006101000a81548160ff021916908315150217905550600460003373ffffffffffffffffffffffffffffffffffffffff1673ffffffffffffffffffffffffffffffffffffffff168152602001908152602001600020819080600181540180825580915050600190039060005260206000200160009091909190916101000a81548173ffffffffffffffffffffffffffffffffffffffff021916908373ffffffffffffffffffffffffffffffffffffffff160217905550600660008273ffffffffffffffffffffffffffffffffffffffff1673ffffffffffffffffffffffffffffffffffffffff168152602001908152602001600020339080600181540180825580915050600190039060005260206000200160009091909190916101000a81548173ffffffffffffffffffffffffffffffffffffffff021916908373ffffffffffffffffffffffffffffffffffffffff1602179055503373ffffffffffffffffffffffffffffffffffffffff167f2bfb37b25e6fbbc82573d0ca66d84b9943f3d136c3325e3f352c5b7b7baac4a2826040516106959190611e7c565b60405180910390a250565b60008054906101000a900473ffffffffffffffffffffffffffffffffffffffff1673ffffffffffffffffffffffffffffffffffffffff163373ffffffffffffffffffffffffffffffffffffffff161461072e576040517f08c379a000000000000000000000000000000000000000000000000000000000815260040161072590612357565b60405180910390fd5b80600560006101000a81548173ffffffffffffffffffffffffffffffffffffffff021916908373ffffffffffffffffffffffffffffffffffffffff16021790555050565b3373ffffffffffffffffffffffffffffffffffffffff1661079282610902565b73ffffffffffffffffffffffffffffffffffffffff16146107e8576040517f08c379a00000000000000000000000000000000000000000000000000000000081526004016107df906123e9565b60405180910390fd5b600160003373ffffffffffffffffffffffffffffffffffffffff1673ffffffffffffffffffffffffffffffffffffffff16815260200190815260200160002060405180606001604052808481526020016000151581526020014281525090806001815401808255809150506001900390600052602060002090600302016000909190919091506000820151816000019081610883919061260b565b5060208201518160010160006101000a81548160ff0219169083151502179055506040820151816002015550503373ffffffffffffffffffffffffffffffffffffffff167fe3f81b273b142548431346476607dda7126d68317c9b8a1bbee298bc274dc5b0836040516108f69190612716565b60405180910390a25050565b6000600560009054906101000a900473ffffffffffffffffffffffffffffffffffffffff1673ffffffffffffffffffffffffffffffffffffffff166344cfd456836040518263ffffffff1660e01b815260040161095f9190612747565b602060405180830381865afa15801561097c573d6000803e3d6000fd5b505050506040513d601f19601f820116820180604052508101906109a09190612777565b9050919050565b600260003373ffffffffffffffffffffffffffffffffffffffff1673ffffffffffffffffffffffffffffffffffffffff16815260200190815260200160002060009054906101000a900460ff16610a33576040517f08c379a0000000000000000000000000000000000000000000000000000000008152600401610a2a9061227f565b60405180910390fd5b60011515600360008473ffffffffffffffffffffffffffffffffffffffff1673ffffffffffffffffffffffffffffffffffffffff16815260200190815260200160002060003373ffffffffffffffffffffffffffffffffffffffff1673ffffffffffffffffffffffffffffffffffffffff16815260200190815260200160002060009054906101000a900460ff16151514610b03576040517f08c379a0000000000000000000000000000000000000000000000000000000008152600401610afa906127f0565b60405180910390fd5b6000610b0e83611b32565b905060008111610b53576040517f08c379a0000000000000000000000000000000000000000000000000000000008152600401610b4a90612882565b60405180910390fd5b81600160008573ffffffffffffffffffffffffffffffffffffffff1673ffffffffffffffffffffffffffffffffffffffff168152602001908152602001600020600183610ba091906128d1565b81548110610bb157610bb0612905565b5b906000526020600020906003020160010160006101000a81548160ff0219169083151502179055508273ffffffffffffffffffffffffffffffffffffffff167f7a02eb9b107b2ab713e88c3cd7ac538e5c21b689d0f1b1f22367578b28fc5d0983604051610c1f9190611f9e565b60405180910390a2505050565b6000610c36611b7e565b905060008160000160089054906101000a900460ff1615905060008260000160009054906101000a900467ffffffffffffffff1690506000808267ffffffffffffffff16148015610c845750825b9050600060018367ffffffffffffffff16148015610cb9575060003073ffffffffffffffffffffffffffffffffffffffff163b145b905081158015610cc7575080155b15610cfe576040517ff92ee8a900000000000000000000000000000000000000000000000000000000815260040160405180910390fd5b60018560000160006101000a81548167ffffffffffffffff021916908367ffffffffffffffff1602179055508315610d4e5760018560000160086101000a81548160ff0219169083151502179055505b336000806101000a81548173ffffffffffffffffffffffffffffffffffffffff021916908373ffffffffffffffffffffffffffffffffffffffff1602179055508315610dea5760008560000160086101000a81548160ff0219169083151502179055507fc7f505b2f371ae2175ee4913f4499e1f2633a7b5936321eed1cdaeb6115181d26001604051610de19190612983565b60405180910390a15b5050505050565b600260008273ffffffffffffffffffffffffffffffffffffffff1673ffffffffffffffffffffffffffffffffffffffff16815260200190815260200160002060009054906101000a900460ff16610e7d576040517f08c379a0000000000000000000000000000000000000000000000000000000008152600401610e749061227f565b60405180910390fd5b600360003373ffffffffffffffffffffffffffffffffffffffff1673ffffffffffffffffffffffffffffffffffffffff16815260200190815260200160002060008273ffffffffffffffffffffffffffffffffffffffff1673ffffffffffffffffffffffffffffffffffffffff16815260200190815260200160002060009054906101000a900460ff16610f46576040517f08c379a0000000000000000000000000000000000000000000000000000000008152600401610f3d906129ea565b60405180910390fd5b610f4f816119be565b610f8e576040517f08c379a0000000000000000000000000000000000000000000000000000000008152600401610f85906129ea565b60405180910390fd5b6000600360003373ffffffffffffffffffffffffffffffffffffffff1673ffffffffffffffffffffffffffffffffffffffff16815260200190815260200160002060008373ffffffffffffffffffffffffffffffffffffffff1673ffffffffffffffffffffffffffffffffffffffff16815260200190815260200160002060006101000a81548160ff0219169083151502179055506000600660008373ffffffffffffffffffffffffffffffffffffffff1673ffffffffffffffffffffffffffffffffffffffff168152602001908152602001600020905060005b81805490508110156111e8573373ffffffffffffffffffffffffffffffffffffffff1682828154811061109f5761109e612905565b5b9060005260206000200160009054906101000a900473ffffffffffffffffffffffffffffffffffffffff1673ffffffffffffffffffffffffffffffffffffffff16036111db5781600183805490506110f791906128d1565b8154811061110857611107612905565b5b9060005260206000200160009054906101000a900473ffffffffffffffffffffffffffffffffffffffff1682828154811061114657611145612905565b5b9060005260206000200160006101000a81548173ffffffffffffffffffffffffffffffffffffffff021916908373ffffffffffffffffffffffffffffffffffffffff1602179055508180548061119f5761119e612a0a565b5b6001900381819060005260206000200160006101000a81549073ffffffffffffffffffffffffffffffffffffffff021916905590555050611272565b8080600101915050611069565b503373ffffffffffffffffffffffffffffffffffffffff167ff06057cc48dd5f9878f47f79f2df8762ff5ba40b0fc2712114a3b2313774f5928360405161122f9190611e7c565b60405180910390a26040517f08c379a000000000000000000000000000000000000000000000000000000000815260040161126990612a85565b60405180910390fd5b50565b60008054906101000a900473ffffffffffffffffffffffffffffffffffffffff1673ffffffffffffffffffffffffffffffffffffffff163373ffffffffffffffffffffffffffffffffffffffff1614611303576040517f08c379a00000000000000000000000000000000000000000000000000000000081526004016112fa90612357565b60405180910390fd5b6001600260008373ffffffffffffffffffffffffffffffffffffffff1673ffffffffffffffffffffffffffffffffffffffff16815260200190815260200160002060006101000a81548160ff02191690831515021790555050565b6004602052816000526040600020818154811061137a57600080fd5b906000526020600020016000915091509054906101000a900473ffffffffffffffffffffffffffffffffffffffff1681565b60036020528160005260406000206020528060005260406000206000915091509054906101000a900460ff1681565b6113e3611ba6565b600260003373ffffffffffffffffffffffffffffffffffffffff1673ffffffffffffffffffffffffffffffffffffffff16815260200190815260200160002060009054906101000a900460ff1661146f576040517f08c379a00000000000000000000000000000000000000000000000000000000081526004016114669061227f565b60405180910390fd5b60011515600360008473ffffffffffffffffffffffffffffffffffffffff1673ffffffffffffffffffffffffffffffffffffffff16815260200190815260200160002060003373ffffffffffffffffffffffffffffffffffffffff1673ffffffffffffffffffffffffffffffffffffffff16815260200190815260200160002060009054906101000a900460ff1615151461153f576040517f08c379a0000000000000000000000000000000000000000000000000000000008152600401611536906127f0565b60405180910390fd5b600061154a83611b32565b90506000811161158f576040517f08c379a000000000000000000000000000000000000000000000000000000000815260040161158690612882565b60405180910390fd5b600160008473ffffffffffffffffffffffffffffffffffffffff1673ffffffffffffffffffffffffffffffffffffffff1681526020019081526020016000206001826115db91906128d1565b815481106115ec576115eb612905565b5b906000526020600020906003020160405180606001604052908160008201805461161590612438565b80601f016020809104026020016040519081016040528092919081815260200182805461164190612438565b801561168e5780601f106116635761010080835404028352916020019161168e565b820191906000526020600020905b81548152906001019060200180831161167157829003601f168201915b505050505081526020016001820160009054906101000a900460ff16151515158152602001600282015481525050915050919050565b60008054906101000a900473ffffffffffffffffffffffffffffffffffffffff1673ffffffffffffffffffffffffffffffffffffffff163373ffffffffffffffffffffffffffffffffffffffff1614611752576040517f08c379a000000000000000000000000000000000000000000000000000000000815260040161174990612357565b60405180910390fd5b6000600260008373ffffffffffffffffffffffffffffffffffffffff1673ffffffffffffffffffffffffffffffffffffffff16815260200190815260200160002060006101000a81548160ff02191690831515021790555050565b600660205281600052604060002081815481106117c957600080fd5b906000526020600020016000915091509054906101000a900473ffffffffffffffffffffffffffffffffffffffff1681565b60008054906101000a900473ffffffffffffffffffffffffffffffffffffffff1681565b60026020528060005260406000206000915054906101000a900460ff1681565b600560009054906101000a900473ffffffffffffffffffffffffffffffffffffffff1681565b6060600260008373ffffffffffffffffffffffffffffffffffffffff1673ffffffffffffffffffffffffffffffffffffffff16815260200190815260200160002060009054906101000a900460ff166118f3576040517f08c379a00000000000000000000000000000000000000000000000000000000081526004016118ea90612af1565b60405180910390fd5b600660008373ffffffffffffffffffffffffffffffffffffffff1673ffffffffffffffffffffffffffffffffffffffff1681526020019081526020016000208054806020026020016040519081016040528092919081815260200182805480156119b257602002820191906000526020600020905b8160009054906101000a900473ffffffffffffffffffffffffffffffffffffffff1673ffffffffffffffffffffffffffffffffffffffff1681526020019060010190808311611968575b50505050509050919050565b6000600260008373ffffffffffffffffffffffffffffffffffffffff1673ffffffffffffffffffffffffffffffffffffffff16815260200190815260200160002060009054906101000a900460ff16611a4c576040517f08c379a0000000000000000000000000000000000000000000000000000000008152600401611a439061227f565b60405180910390fd5b6000600660008473ffffffffffffffffffffffffffffffffffffffff1673ffffffffffffffffffffffffffffffffffffffff168152602001908152602001600020905060005b8180549050811015611b26573373ffffffffffffffffffffffffffffffffffffffff16828281548110611ac857611ac7612905565b5b9060005260206000200160009054906101000a900473ffffffffffffffffffffffffffffffffffffffff1673ffffffffffffffffffffffffffffffffffffffff1603611b1957600192505050611b2d565b8080600101915050611a92565b5060009150505b919050565b6000600160008373ffffffffffffffffffffffffffffffffffffffff1673ffffffffffffffffffffffffffffffffffffffff168152602001908152602001600020805490509050919050565b60007ff0c57e16840df040f15088dc2f81fe391c3923bec73e23a9662efc9c229c6a00905090565b604051806060016040528060608152602001600015158152602001600081525090565b6000604051905090565b600080fd5b600080fd5b600073ffffffffffffffffffffffffffffffffffffffff82169050919050565b6000611c0882611bdd565b9050919050565b611c1881611bfd565b8114611c2357600080fd5b50565b600081359050611c3581611c0f565b92915050565b600060208284031215611c5157611c50611bd3565b5b6000611c5f84828501611c26565b91505092915050565b600080fd5b600080fd5b6000601f19601f8301169050919050565b7f4e487b7100000000000000000000000000000000000000000000000000000000600052604160045260246000fd5b611cbb82611c72565b810181811067ffffffffffffffff82111715611cda57611cd9611c83565b5b80604052505050565b6000611ced611bc9565b9050611cf98282611cb2565b919050565b600067ffffffffffffffff821115611d1957611d18611c83565b5b611d2282611c72565b9050602081019050919050565b82818337600083830152505050565b6000611d51611d4c84611cfe565b611ce3565b905082815260208101848484011115611d6d57611d6c611c6d565b5b611d78848285611d2f565b509392505050565b600082601f830112611d9557611d94611c68565b5b8135611da5848260208601611d3e565b91505092915050565b6000819050919050565b611dc181611dae565b8114611dcc57600080fd5b50565b600081359050611dde81611db8565b92915050565b60008060408385031215611dfb57611dfa611bd3565b5b600083013567ffffffffffffffff811115611e1957611e18611bd8565b5b611e2585828601611d80565b9250506020611e3685828601611dcf565b9150509250929050565b600060208284031215611e5657611e55611bd3565b5b6000611e6484828501611dcf565b91505092915050565b611e7681611bfd565b82525050565b6000602082019050611e916000830184611e6d565b92915050565b60008115159050919050565b611eac81611e97565b8114611eb757600080fd5b50565b600081359050611ec981611ea3565b92915050565b60008060408385031215611ee657611ee5611bd3565b5b6000611ef485828601611c26565b9250506020611f0585828601611eba565b9150509250929050565b60008060408385031215611f2657611f25611bd3565b5b6000611f3485828601611c26565b9250506020611f4585828601611dcf565b9150509250929050565b60008060408385031215611f6657611f65611bd3565b5b6000611f7485828601611c26565b9250506020611f8585828601611c26565b9150509250929050565b611f9881611e97565b82525050565b6000602082019050611fb36000830184611f8f565b92915050565b600081519050919050565b600082825260208201905092915050565b60005b83811015611ff3578082015181840152602081019050611fd8565b60008484015250505050565b600061200a82611fb9565b6120148185611fc4565b9350612024818560208601611fd5565b61202d81611c72565b840191505092915050565b61204181611e97565b82525050565b61205081611dae565b82525050565b600060608301600083015184820360008601526120738282611fff565b91505060208301516120886020860182612038565b50604083015161209b6040860182612047565b508091505092915050565b600060208201905081810360008301526120c08184612056565b905092915050565b6000819050919050565b60006120ed6120e86120e384611bdd565b6120c8565b611bdd565b9050919050565b60006120ff826120d2565b9050919050565b6000612111826120f4565b9050919050565b61212181612106565b82525050565b600060208201905061213c6000830184612118565b92915050565b600081519050919050565b600082825260208201905092915050565b6000819050602082019050919050565b61217781611bfd565b82525050565b6000612189838361216e565b60208301905092915050565b6000602082019050919050565b60006121ad82612142565b6121b7818561214d565b93506121c28361215e565b8060005b838110156121f35781516121da888261217d565b97506121e583612195565b9250506001810190506121c6565b5085935050505092915050565b6000602082019050818103600083015261221a81846121a2565b905092915050565b600082825260208201905092915050565b7f5665726966696572206e6f7420666f756e6420696e206c697374000000000000600082015250565b6000612269601a83612222565b915061227482612233565b602082019050919050565b600060208201905081810360008301526122988161225c565b9050919050565b7f416c726561647920616464656400000000000000000000000000000000000000600082015250565b60006122d5600d83612222565b91506122e08261229f565b602082019050919050565b60006020820190508181036000830152612304816122c8565b9050919050565b7f4f6e6c7920617574686f72697479000000000000000000000000000000000000600082015250565b6000612341600e83612222565b915061234c8261230b565b602082019050919050565b6000602082019050818103600083015261237081612334565b9050919050565b7f4e6f7420617574686f72697a656420746f207375626d6974204b59432064617460008201527f6100000000000000000000000000000000000000000000000000000000000000602082015250565b60006123d3602183612222565b91506123de82612377565b604082019050919050565b60006020820190508181036000830152612402816123c6565b9050919050565b7f4e487b7100000000000000000000000000000000000000000000000000000000600052602260045260246000fd5b6000600282049050600182168061245057607f821691505b60208210810361246357612462612409565b5b50919050565b60008190508160005260206000209050919050565b60006020601f8301049050919050565b600082821b905092915050565b6000600883026124cb7fffffffffffffffffffffffffffffffffffffffffffffffffffffffffffffffff8261248e565b6124d5868361248e565b95508019841693508086168417925050509392505050565b60006125086125036124fe84611dae565b6120c8565b611dae565b9050919050565b6000819050919050565b612522836124ed565b61253661252e8261250f565b84845461249b565b825550505050565b600090565b61254b61253e565b612556818484612519565b505050565b5b8181101561257a5761256f600082612543565b60018101905061255c565b5050565b601f8211156125bf5761259081612469565b6125998461247e565b810160208510156125a8578190505b6125bc6125b48561247e565b83018261255b565b50505b505050565b600082821c905092915050565b60006125e2600019846008026125c4565b1980831691505092915050565b60006125fb83836125d1565b9150826002028217905092915050565b61261482611fb9565b67ffffffffffffffff81111561262d5761262c611c83565b5b6126378254612438565b61264282828561257e565b600060209050601f8311600181146126755760008415612663578287015190505b61266d85826125ef565b8655506126d5565b601f19841661268386612469565b60005b828110156126ab57848901518255600182019150602085019450602081019050612686565b868310156126c857848901516126c4601f8916826125d1565b8355505b6001600288020188555050505b505050505050565b60006126e882611fb9565b6126f28185612222565b9350612702818560208601611fd5565b61270b81611c72565b840191505092915050565b6000602082019050818103600083015261273081846126dd565b905092915050565b61274181611dae565b82525050565b600060208201905061275c6000830184612738565b92915050565b60008151905061277181611c0f565b92915050565b60006020828403121561278d5761278c611bd3565b5b600061279b84828501612762565b91505092915050565b7f4e6f7420617574686f72697a656420746f207665726966790000000000000000600082015250565b60006127da601883612222565b91506127e5826127a4565b602082019050919050565b60006020820190508181036000830152612809816127cd565b9050919050565b7f4e6f204b5943206461746120617661696c61626c6520666f722074686973207560008201527f7365722e00000000000000000000000000000000000000000000000000000000602082015250565b600061286c602483612222565b915061287782612810565b604082019050919050565b6000602082019050818103600083015261289b8161285f565b9050919050565b7f4e487b7100000000000000000000000000000000000000000000000000000000600052601160045260246000fd5b60006128dc82611dae565b91506128e783611dae565b92508282039050818111156128ff576128fe6128a2565b5b92915050565b7f4e487b7100000000000000000000000000000000000000000000000000000000600052603260045260246000fd5b6000819050919050565b600067ffffffffffffffff82169050919050565b600061296d61296861296384612934565b6120c8565b61293e565b9050919050565b61297d81612952565b82525050565b60006020820190506129986000830184612974565b92915050565b7f416363657373206e6f74206772616e7465640000000000000000000000000000600082015250565b60006129d4601283612222565b91506129df8261299e565b602082019050919050565b60006020820190508181036000830152612a03816129c7565b9050919050565b7f4e487b7100000000000000000000000000000000000000000000000000000000600052603160045260246000fd5b7f436974697a656e206e6f7420666f756e64000000000000000000000000000000600082015250565b6000612a6f601183612222565b9150612a7a82612a39565b602082019050919050565b60006020820190508181036000830152612a9e81612a62565b9050919050565b7f56657266696572206e6f7420666f756e64000000000000000000000000000000600082015250565b6000612adb601183612222565b9150612ae682612aa5565b602082019050919050565b60006020820190508181036000830152612b0a81612ace565b905091905056fea26469706673582212209ce54b5cea54c42b337b81212ada0cea8e0bcfd369425a8dafe2b23cfcf9eb5064736f6c63430008180033",
  "linkReferences": {},
  "deployedLinkReferences": {}
}