{
  "_format": "hh-sol-artifact-1",
  "contractName": "WalletContract",
  "sourceName": "contracts/WalletContractV1.sol",
  "abi": [
    {
      "inputs": [],
      "name": "InvalidInitialization",
      "type": "error"
    },
    {
      "inputs": [],
      "name": "NotInitializing",
      "type": "error"
    },
    {
      "anonymous": false,
      "inputs": [
        {
          "indexed": false,
          "internalType": "uint64",
          "name": "version",
          "type": "uint64"
        }
      ],
      "name": "Initialized",
      "type": "event"
    },
    {
      "inputs": [
        {
          "internalType": "uint256",
          "name": "",
          "type": "uint256"
        }
      ],
      "name": "admins",
      "outputs": [
        {
          "internalType": "address",
          "name": "",
          "type": "address"
        }
      ],
      "stateMutability": "view",
      "type": "function"
    },
    {
      "inputs": [],
      "name": "deployer",
      "outputs": [
        {
          "internalType": "address",
          "name": "",
          "type": "address"
        }
      ],
      "stateMutability": "view",
      "type": "function"
    },
    {
      "inputs": [
        {
          "internalType": "uint256",
          "name": "_nid",
          "type": "uint256"
        }
      ],
      "name": "getWallet",
      "outputs": [
        {
          "internalType": "string",
          "name": "",
          "type": "string"
        }
      ],
      "stateMutability": "view",
      "type": "function"
    },
    {
      "inputs": [
        {
          "internalType": "uint256",
          "name": "_nid",
          "type": "uint256"
        }
      ],
      "name": "getWalletOwner",
      "outputs": [
        {
          "internalType": "address",
          "name": "",
          "type": "address"
        }
      ],
      "stateMutability": "view",
      "type": "function"
    },
    {
      "inputs": [
        {
          "internalType": "address",
          "name": "_deployer",
          "type": "address"
        }
      ],
      "name": "initialize",
      "outputs": [],
      "stateMutability": "nonpayable",
      "type": "function"
    },
    {
      "inputs": [
        {
          "internalType": "address",
          "name": "_admin",
          "type": "address"
        }
      ],
      "name": "isAdmin",
      "outputs": [
        {
          "internalType": "bool",
          "name": "",
          "type": "bool"
        }
      ],
      "stateMutability": "view",
      "type": "function"
    },
    {
      "inputs": [
        {
          "internalType": "uint256",
          "name": "",
          "type": "uint256"
        }
      ],
      "name": "kycWallets",
      "outputs": [
        {
          "internalType": "address",
          "name": "",
          "type": "address"
        }
      ],
      "stateMutability": "view",
      "type": "function"
    },
    {
      "inputs": [
        {
          "internalType": "uint256",
          "name": "_nid",
          "type": "uint256"
        }
      ],
      "name": "removeWallet",
      "outputs": [],
      "stateMutability": "nonpayable",
      "type": "function"
    },
    {
      "inputs": [
        {
          "internalType": "uint256",
          "name": "_nid",
          "type": "uint256"
        },
        {
          "internalType": "string",
          "name": "_shard3",
          "type": "string"
        },
        {
          "internalType": "address",
          "name": "_wallet",
          "type": "address"
        }
      ],
      "name": "setWallet",
      "outputs": [],
      "stateMutability": "nonpayable",
      "type": "function"
    },
    {
      "inputs": [
        {
          "internalType": "address",
          "name": "_newDeployer",
          "type": "address"
        }
      ],
      "name": "updateDeployer",
      "outputs": [],
      "stateMutability": "nonpayable",
      "type": "function"
    },
    {
      "inputs": [
        {
          "internalType": "uint256",
          "name": "_nid",
          "type": "uint256"
        },
        {
          "internalType": "string",
          "name": "_shard3",
          "type": "string"
        }
      ],
      "name": "updateWallet",
      "outputs": [],
      "stateMutability": "nonpayable",
      "type": "function"
    },
    {
      "inputs": [
        {
          "internalType": "uint256",
          "name": "_nid",
          "type": "uint256"
        },
        {
          "internalType": "address",
          "name": "_walletOwner",
          "type": "address"
        }
      ],
      "name": "updateWalletOwner",
      "outputs": [],
      "stateMutability": "nonpayable",
      "type": "function"
    },
    {
      "inputs": [
        {
          "internalType": "uint256",
          "name": "",
          "type": "uint256"
        }
      ],
      "name": "wallets",
      "outputs": [
        {
          "internalType": "string",
          "name": "",
          "type": "string"
        }
      ],
      "stateMutability": "view",
      "type": "function"
    }
  ],
  "bytecode": "0x608060405234801561001057600080fd5b50611548806100206000396000f3fe608060405234801561001057600080fd5b50600436106100cf5760003560e01c80635470b13b1161008c578063d04731d411610066578063d04731d414610248578063d5f3948814610264578063efa9549114610282578063f61aa57c1461029e576100cf565b80635470b13b146101cc5780637ad71f72146101fc578063c4d66de81461022c576100cf565b806310541e73146100d457806314bfd6d01461010457806324d7806c14610134578063287c80dd1461016457806344cfd456146101805780634d413e7d146101b0575b600080fd5b6100ee60048036038101906100e99190610c6d565b6102ba565b6040516100fb9190610cdb565b60405180910390f35b61011e60048036038101906101199190610c6d565b6102ed565b60405161012b9190610cdb565b60405180910390f35b61014e60048036038101906101499190610d22565b61032c565b60405161015b9190610d6a565b60405180910390f35b61017e60048036038101906101799190610d85565b6103d4565b005b61019a60048036038101906101959190610c6d565b6104c8565b6040516101a79190610cdb565b60405180910390f35b6101ca60048036038101906101c59190610d22565b610505565b005b6101e660048036038101906101e19190610c6d565b6105d6565b6040516101f39190610e55565b60405180910390f35b61021660048036038101906102119190610c6d565b61067b565b6040516102239190610e55565b60405180910390f35b61024660048036038101906102419190610d22565b61071b565b005b610262600480360381019061025d9190610c6d565b6108e1565b005b61026c6109a1565b6040516102799190610cdb565b60405180910390f35b61029c60048036038101906102979190610fac565b6109c5565b005b6102b860048036038101906102b39190611008565b610a88565b005b60036020528060005260406000206000915054906101000a900473ffffffffffffffffffffffffffffffffffffffff1681565b600181815481106102fd57600080fd5b906000526020600020016000915054906101000a900473ffffffffffffffffffffffffffffffffffffffff1681565b600080600090505b6001805490508110156103c9578273ffffffffffffffffffffffffffffffffffffffff166001828154811061036c5761036b611077565b5b9060005260206000200160009054906101000a900473ffffffffffffffffffffffffffffffffffffffff1673ffffffffffffffffffffffffffffffffffffffff16036103bc5760019150506103cf565b8080600101915050610334565b50600090505b919050565b60008054906101000a900473ffffffffffffffffffffffffffffffffffffffff1673ffffffffffffffffffffffffffffffffffffffff163373ffffffffffffffffffffffffffffffffffffffff16148061043357506104323361032c565b5b610472576040517f08c379a000000000000000000000000000000000000000000000000000000000815260040161046990611118565b60405180910390fd5b806003600084815260200190815260200160002060006101000a81548173ffffffffffffffffffffffffffffffffffffffff021916908373ffffffffffffffffffffffffffffffffffffffff1602179055505050565b60006003600083815260200190815260200160002060009054906101000a900473ffffffffffffffffffffffffffffffffffffffff169050919050565b60008054906101000a900473ffffffffffffffffffffffffffffffffffffffff1673ffffffffffffffffffffffffffffffffffffffff163373ffffffffffffffffffffffffffffffffffffffff1614610593576040517f08c379a000000000000000000000000000000000000000000000000000000000815260040161058a906111aa565b60405180910390fd5b806000806101000a81548173ffffffffffffffffffffffffffffffffffffffff021916908373ffffffffffffffffffffffffffffffffffffffff16021790555050565b60606002600083815260200190815260200160002080546105f6906111f9565b80601f0160208091040260200160405190810160405280929190818152602001828054610622906111f9565b801561066f5780601f106106445761010080835404028352916020019161066f565b820191906000526020600020905b81548152906001019060200180831161065257829003601f168201915b50505050509050919050565b6002602052806000526040600020600091509050805461069a906111f9565b80601f01602080910402602001604051908101604052809291908181526020018280546106c6906111f9565b80156107135780601f106106e857610100808354040283529160200191610713565b820191906000526020600020905b8154815290600101906020018083116106f657829003601f168201915b505050505081565b6000610725610b9e565b905060008160000160089054906101000a900460ff1615905060008260000160009054906101000a900467ffffffffffffffff1690506000808267ffffffffffffffff161480156107735750825b9050600060018367ffffffffffffffff161480156107a8575060003073ffffffffffffffffffffffffffffffffffffffff163b145b9050811580156107b6575080155b156107ed576040517ff92ee8a900000000000000000000000000000000000000000000000000000000815260040160405180910390fd5b60018560000160006101000a81548167ffffffffffffffff021916908367ffffffffffffffff160217905550831561083d5760018560000160086101000a81548160ff0219169083151502179055505b856000806101000a81548173ffffffffffffffffffffffffffffffffffffffff021916908373ffffffffffffffffffffffffffffffffffffffff16021790555083156108d95760008560000160086101000a81548160ff0219169083151502179055507fc7f505b2f371ae2175ee4913f4499e1f2633a7b5936321eed1cdaeb6115181d260016040516108d09190611283565b60405180910390a15b505050505050565b60008054906101000a900473ffffffffffffffffffffffffffffffffffffffff1673ffffffffffffffffffffffffffffffffffffffff163373ffffffffffffffffffffffffffffffffffffffff161480610940575061093f3361032c565b5b61097f576040517f08c379a000000000000000000000000000000000000000000000000000000000815260040161097690611118565b60405180910390fd5b60026000828152602001908152602001600020600061099e9190610bc6565b50565b60008054906101000a900473ffffffffffffffffffffffffffffffffffffffff1681565b60008054906101000a900473ffffffffffffffffffffffffffffffffffffffff1673ffffffffffffffffffffffffffffffffffffffff163373ffffffffffffffffffffffffffffffffffffffff161480610a245750610a233361032c565b5b610a63576040517f08c379a0000000000000000000000000000000000000000000000000000000008152600401610a5a90611118565b60405180910390fd5b80600260008481526020019081526020016000209081610a839190611440565b505050565b60008054906101000a900473ffffffffffffffffffffffffffffffffffffffff1673ffffffffffffffffffffffffffffffffffffffff163373ffffffffffffffffffffffffffffffffffffffff161480610ae75750610ae63361032c565b5b610b26576040517f08c379a0000000000000000000000000000000000000000000000000000000008152600401610b1d90611118565b60405180910390fd5b81600260008581526020019081526020016000209081610b469190611440565b50806003600085815260200190815260200160002060006101000a81548173ffffffffffffffffffffffffffffffffffffffff021916908373ffffffffffffffffffffffffffffffffffffffff160217905550505050565b60007ff0c57e16840df040f15088dc2f81fe391c3923bec73e23a9662efc9c229c6a00905090565b508054610bd2906111f9565b6000825580601f10610be45750610c03565b601f016020900490600052602060002090810190610c029190610c06565b5b50565b5b80821115610c1f576000816000905550600101610c07565b5090565b6000604051905090565b600080fd5b600080fd5b6000819050919050565b610c4a81610c37565b8114610c5557600080fd5b50565b600081359050610c6781610c41565b92915050565b600060208284031215610c8357610c82610c2d565b5b6000610c9184828501610c58565b91505092915050565b600073ffffffffffffffffffffffffffffffffffffffff82169050919050565b6000610cc582610c9a565b9050919050565b610cd581610cba565b82525050565b6000602082019050610cf06000830184610ccc565b92915050565b610cff81610cba565b8114610d0a57600080fd5b50565b600081359050610d1c81610cf6565b92915050565b600060208284031215610d3857610d37610c2d565b5b6000610d4684828501610d0d565b91505092915050565b60008115159050919050565b610d6481610d4f565b82525050565b6000602082019050610d7f6000830184610d5b565b92915050565b60008060408385031215610d9c57610d9b610c2d565b5b6000610daa85828601610c58565b9250506020610dbb85828601610d0d565b9150509250929050565b600081519050919050565b600082825260208201905092915050565b60005b83811015610dff578082015181840152602081019050610de4565b60008484015250505050565b6000601f19601f8301169050919050565b6000610e2782610dc5565b610e318185610dd0565b9350610e41818560208601610de1565b610e4a81610e0b565b840191505092915050565b60006020820190508181036000830152610e6f8184610e1c565b905092915050565b600080fd5b600080fd5b7f4e487b7100000000000000000000000000000000000000000000000000000000600052604160045260246000fd5b610eb982610e0b565b810181811067ffffffffffffffff82111715610ed857610ed7610e81565b5b80604052505050565b6000610eeb610c23565b9050610ef78282610eb0565b919050565b600067ffffffffffffffff821115610f1757610f16610e81565b5b610f2082610e0b565b9050602081019050919050565b82818337600083830152505050565b6000610f4f610f4a84610efc565b610ee1565b905082815260208101848484011115610f6b57610f6a610e7c565b5b610f76848285610f2d565b509392505050565b600082601f830112610f9357610f92610e77565b5b8135610fa3848260208601610f3c565b91505092915050565b60008060408385031215610fc357610fc2610c2d565b5b6000610fd185828601610c58565b925050602083013567ffffffffffffffff811115610ff257610ff1610c32565b5b610ffe85828601610f7e565b9150509250929050565b60008060006060848603121561102157611020610c2d565b5b600061102f86828701610c58565b935050602084013567ffffffffffffffff8111156110505761104f610c32565b5b61105c86828701610f7e565b925050604061106d86828701610d0d565b9150509250925092565b7f4e487b7100000000000000000000000000000000000000000000000000000000600052603260045260246000fd5b7f4f6e6c79206465706c6f796572206f722061646d696e732063616e2063616c6c60008201527f20746869732066756e6374696f6e000000000000000000000000000000000000602082015250565b6000611102602e83610dd0565b915061110d826110a6565b604082019050919050565b60006020820190508181036000830152611131816110f5565b9050919050565b7f4f6e6c79206465706c6f7965722063616e2063616c6c20746869732066756e6360008201527f74696f6e00000000000000000000000000000000000000000000000000000000602082015250565b6000611194602483610dd0565b915061119f82611138565b604082019050919050565b600060208201905081810360008301526111c381611187565b9050919050565b7f4e487b7100000000000000000000000000000000000000000000000000000000600052602260045260246000fd5b6000600282049050600182168061121157607f821691505b602082108103611224576112236111ca565b5b50919050565b6000819050919050565b600067ffffffffffffffff82169050919050565b6000819050919050565b600061126d6112686112638461122a565b611248565b611234565b9050919050565b61127d81611252565b82525050565b60006020820190506112986000830184611274565b92915050565b60008190508160005260206000209050919050565b60006020601f8301049050919050565b600082821b905092915050565b6000600883026113007fffffffffffffffffffffffffffffffffffffffffffffffffffffffffffffffff826112c3565b61130a86836112c3565b95508019841693508086168417925050509392505050565b600061133d61133861133384610c37565b611248565b610c37565b9050919050565b6000819050919050565b61135783611322565b61136b61136382611344565b8484546112d0565b825550505050565b600090565b611380611373565b61138b81848461134e565b505050565b5b818110156113af576113a4600082611378565b600181019050611391565b5050565b601f8211156113f4576113c58161129e565b6113ce846112b3565b810160208510156113dd578190505b6113f16113e9856112b3565b830182611390565b50505b505050565b600082821c905092915050565b6000611417600019846008026113f9565b1980831691505092915050565b60006114308383611406565b9150826002028217905092915050565b61144982610dc5565b67ffffffffffffffff81111561146257611461610e81565b5b61146c82546111f9565b6114778282856113b3565b600060209050601f8311600181146114aa5760008415611498578287015190505b6114a28582611424565b86555061150a565b601f1984166114b88661129e565b60005b828110156114e0578489015182556001820191506020850194506020810190506114bb565b868310156114fd57848901516114f9601f891682611406565b8355505b6001600288020188555050505b50505050505056fea2646970667358221220b30eca1b7a2504168cce1bead1c3cfb23d7d87b6101b40455403b15adb3f967e64736f6c63430008180033",
  "linkReferences": {},
  "deployedLinkReferences": {}
}