{
  "_format": "hh-sol-artifact-1",
  "contractName": "TaxShieldBD",
  "sourceName": "contracts/TaxShieldBD.sol",
  "abi": [
    {
      "inputs": [],
      "name": "InvalidInitialization",
      "type": "error"
    },
    {
      "inputs": [],
      "name": "NotInitializing",
      "type": "error"
    },
    {
      "anonymous": false,
      "inputs": [
        {
          "indexed": true,
          "internalType": "uint256",
          "name": "nid",
          "type": "uint256"
        },
        {
          "indexed": true,
          "internalType": "uint256",
          "name": "tinNumber",
          "type": "uint256"
        }
      ],
      "name": "GenerateTIN",
      "type": "event"
    },
    {
      "anonymous": false,
      "inputs": [
        {
          "indexed": false,
          "internalType": "uint64",
          "name": "version",
          "type": "uint64"
        }
      ],
      "name": "Initialized",
      "type": "event"
    },
    {
      "inputs": [
        {
          "internalType": "address",
          "name": "_admin",
          "type": "address"
        }
      ],
      "name": "addAdmin",
      "outputs": [],
      "stateMutability": "nonpayable",
      "type": "function"
    },
    {
      "inputs": [
        {
          "internalType": "uint256",
          "name": "",
          "type": "uint256"
        }
      ],
      "name": "adminAddresses",
      "outputs": [
        {
          "internalType": "address",
          "name": "",
          "type": "address"
        }
      ],
      "stateMutability": "view",
      "type": "function"
    },
    {
      "inputs": [
        {
          "internalType": "uint256",
          "name": "_nid",
          "type": "uint256"
        }
      ],
      "name": "getWalletOwner",
      "outputs": [
        {
          "internalType": "address",
          "name": "",
          "type": "address"
        }
      ],
      "stateMutability": "view",
      "type": "function"
    },
    {
      "inputs": [
        {
          "internalType": "address",
          "name": "_kycRegistrar",
          "type": "address"
        },
        {
          "internalType": "address",
          "name": "_walletContract",
          "type": "address"
        },
        {
          "internalType": "address",
          "name": "_owner",
          "type": "address"
        }
      ],
      "name": "initialize",
      "outputs": [],
      "stateMutability": "nonpayable",
      "type": "function"
    },
    {
      "inputs": [
        {
          "internalType": "address",
          "name": "_admin",
          "type": "address"
        }
      ],
      "name": "isAdmin",
      "outputs": [
        {
          "internalType": "bool",
          "name": "",
          "type": "bool"
        }
      ],
      "stateMutability": "view",
      "type": "function"
    },
    {
      "inputs": [],
      "name": "kycRegistrar",
      "outputs": [
        {
          "internalType": "contract IKYCRegistrar",
          "name": "",
          "type": "address"
        }
      ],
      "stateMutability": "view",
      "type": "function"
    },
    {
      "inputs": [
        {
          "internalType": "uint256",
          "name": "",
          "type": "uint256"
        }
      ],
      "name": "nid2Tin",
      "outputs": [
        {
          "internalType": "uint256",
          "name": "nid",
          "type": "uint256"
        },
        {
          "internalType": "uint256",
          "name": "tinNumber",
          "type": "uint256"
        },
        {
          "internalType": "string",
          "name": "doc_ipfsHash",
          "type": "string"
        },
        {
          "internalType": "uint256",
          "name": "issued_date",
          "type": "uint256"
        }
      ],
      "stateMutability": "view",
      "type": "function"
    },
    {
      "inputs": [
        {
          "internalType": "address",
          "name": "_admin",
          "type": "address"
        }
      ],
      "name": "removeAdmin",
      "outputs": [],
      "stateMutability": "nonpayable",
      "type": "function"
    },
    {
      "inputs": [
        {
          "internalType": "uint256",
          "name": "_nid",
          "type": "uint256"
        },
        {
          "internalType": "uint256",
          "name": "_tinNumber",
          "type": "uint256"
        },
        {
          "internalType": "string",
          "name": "_doc_ipfsHash",
          "type": "string"
        }
      ],
      "name": "setTIN",
      "outputs": [],
      "stateMutability": "nonpayable",
      "type": "function"
    },
    {
      "inputs": [
        {
          "internalType": "address",
          "name": "",
          "type": "address"
        }
      ],
      "name": "userTIN",
      "outputs": [
        {
          "internalType": "uint256",
          "name": "nid",
          "type": "uint256"
        },
        {
          "internalType": "uint256",
          "name": "tinNumber",
          "type": "uint256"
        },
        {
          "internalType": "string",
          "name": "doc_ipfsHash",
          "type": "string"
        },
        {
          "internalType": "uint256",
          "name": "issued_date",
          "type": "uint256"
        }
      ],
      "stateMutability": "view",
      "type": "function"
    },
    {
      "inputs": [],
      "name": "walletContract",
      "outputs": [
        {
          "internalType": "contract IWalletContract",
          "name": "",
          "type": "address"
        }
      ],
      "stateMutability": "view",
      "type": "function"
    }
  ],
  "bytecode": "0x608060405234801561001057600080fd5b50610c85806100206000396000f3fe608060405234801561001057600080fd5b50600436106100a95760003560e01c80637048027511610071578063704802751461014c5780638c52a7671461015f578063ba44eecf14610172578063c0c53b8b14610185578063d0ed5c2f14610198578063e7045492146101ab57600080fd5b80631785f53c146100ae57806324d7806c146100c35780632e405f86146100eb578063340e2fb71461010e57806344cfd45614610139575b600080fd5b6100c16100bc366004610893565b6101be565b005b6100d66100d1366004610893565b610335565b60405190151581526020015b60405180910390f35b6100fe6100f93660046108b7565b610394565b6040516100e294939291906108d0565b600454610121906001600160a01b031681565b6040516001600160a01b0390911681526020016100e2565b6101216101473660046108b7565b610447565b6100c161015a366004610893565b6104bb565b6100c161016d36600461094b565b61057f565b6101216101803660046108b7565b6106b5565b6100c1610193366004610a0f565b6106df565b600354610121906001600160a01b031681565b6100fe6101b9366004610893565b610852565b6000805b60005481101561021457336001600160a01b0316600082815481106101e9576101e9610a5a565b6000918252602090912001546001600160a01b03160361020c5760019150610214565b6001016101c2565b508061023b5760405162461bcd60e51b815260040161023290610a70565b60405180910390fd5b60005b60005481101561033057826001600160a01b03166000828154811061026557610265610a5a565b6000918252602090912001546001600160a01b031603610328576000805461028f90600190610ab1565b8154811061029f5761029f610a5a565b600091825260208220015481546001600160a01b039091169190839081106102c9576102c9610a5a565b6000918252602082200180546001600160a01b0319166001600160a01b03939093169290921790915580548061030157610301610ad2565b600082815260209020810160001990810180546001600160a01b0319169055019055505050565b60010161023e565b505050565b6000805b60005481101561038b57826001600160a01b03166000828154811061036057610360610a5a565b6000918252602090912001546001600160a01b0316036103835750600192915050565b600101610339565b50600092915050565b6002602081905260009182526040909120805460018201549282018054919392916103be90610ae8565b80601f01602080910402602001604051908101604052809291908181526020018280546103ea90610ae8565b80156104375780601f1061040c57610100808354040283529160200191610437565b820191906000526020600020905b81548152906001019060200180831161041a57829003601f168201915b5050505050908060030154905084565b600354604051632267ea2b60e11b8152600481018390526000916001600160a01b0316906344cfd45690602401602060405180830381865afa158015610491573d6000803e3d6000fd5b505050506040513d601f19601f820116820180604052508101906104b59190610b22565b92915050565b6000805b60005481101561051157336001600160a01b0316600082815481106104e6576104e6610a5a565b6000918252602090912001546001600160a01b0316036105095760019150610511565b6001016104bf565b508061052f5760405162461bcd60e51b815260040161023290610a70565b50600080546001810182559080527f290decd9548b62a8d60345a988386fc84ba6bc95484008f6362f93160ef3e5630180546001600160a01b0319166001600160a01b0392909216919091179055565b33600090815260016020526040902054156105c85760405162461bcd60e51b815260206004820152600960248201526815125388199bdd5b9960ba1b6044820152606401610232565b60408051608081018252848152602080820185815282840185815242606085015233600090815260019384905294909420835181559051918101919091559151909190600282019061061a9082610b8f565b5060609182015160039091015560408051608081018252858152602080820186815282840186815242958401959095526000888152600292839052939093208251815592516001840155925190928201906106759082610b8f565b5060609190910151600390910155604051829084907f36a5558af7cd8e9a3edda58ebea26798b2740d1632776f3a9712bcdb27f3942990600090a3505050565b600081815481106106c557600080fd5b6000918252602090912001546001600160a01b0316905081565b7ff0c57e16840df040f15088dc2f81fe391c3923bec73e23a9662efc9c229c6a008054600160401b810460ff16159067ffffffffffffffff166000811580156107255750825b905060008267ffffffffffffffff1660011480156107425750303b155b905081158015610750575080155b1561076e5760405163f92ee8a960e01b815260040160405180910390fd5b845467ffffffffffffffff19166001178555831561079857845460ff60401b1916600160401b1785555b600480546001600160a01b03808b166001600160a01b031992831617909255600380548a8416908316179055600080546001810182559080527f290decd9548b62a8d60345a988386fc84ba6bc95484008f6362f93160ef3e56301805492891692909116919091179055831561084857845460ff60401b19168555604051600181527fc7f505b2f371ae2175ee4913f4499e1f2633a7b5936321eed1cdaeb6115181d29060200160405180910390a15b5050505050505050565b60016020819052600091825260409091208054918101546002820180549192916103be90610ae8565b6001600160a01b038116811461089057600080fd5b50565b6000602082840312156108a557600080fd5b81356108b08161087b565b9392505050565b6000602082840312156108c957600080fd5b5035919050565b8481526000602085602084015260806040840152845180608085015260005b8181101561090b5786810183015185820160a0015282016108ef565b50600060a0828601015260a0601f19601f8301168501019250505082606083015295945050505050565b634e487b7160e01b600052604160045260246000fd5b60008060006060848603121561096057600080fd5b8335925060208401359150604084013567ffffffffffffffff8082111561098657600080fd5b818601915086601f83011261099a57600080fd5b8135818111156109ac576109ac610935565b604051601f8201601f19908116603f011681019083821181831017156109d4576109d4610935565b816040528281528960208487010111156109ed57600080fd5b8260208601602083013760006020848301015280955050505050509250925092565b600080600060608486031215610a2457600080fd5b8335610a2f8161087b565b92506020840135610a3f8161087b565b91506040840135610a4f8161087b565b809150509250925092565b634e487b7160e01b600052603260045260246000fd5b60208082526021908201527f4f6e6c792061646d696e2063616e2063616c6c20746869732066756e6374696f6040820152603760f91b606082015260800190565b818103818111156104b557634e487b7160e01b600052601160045260246000fd5b634e487b7160e01b600052603160045260246000fd5b600181811c90821680610afc57607f821691505b602082108103610b1c57634e487b7160e01b600052602260045260246000fd5b50919050565b600060208284031215610b3457600080fd5b81516108b08161087b565b601f821115610330576000816000526020600020601f850160051c81016020861015610b685750805b601f850160051c820191505b81811015610b8757828155600101610b74565b505050505050565b815167ffffffffffffffff811115610ba957610ba9610935565b610bbd81610bb78454610ae8565b84610b3f565b602080601f831160018114610bf25760008415610bda5750858301515b600019600386901b1c1916600185901b178555610b87565b600085815260208120601f198616915b82811015610c2157888601518255948401946001909101908401610c02565b5085821015610c3f5787850151600019600388901b60f8161c191681555b5050505050600190811b0190555056fea2646970667358221220a74dba227860ab74a2ff33d129d0953ba656621e4c0e8ec0be3c29075915e22464736f6c63430008180033",
  "linkReferences": {},
  "deployedLinkReferences": {}
}